{
  "_format": "hh-sol-artifact-1",
  "contractName": "NFT_Marketplace2",
  "sourceName": "contracts/NFT_Marketplace2.sol",
  "abi": [
    {
      "anonymous": false,
      "inputs": [
        {
          "indexed": true,
          "internalType": "address",
          "name": "owner",
          "type": "address"
        },
        {
          "indexed": true,
          "internalType": "address",
          "name": "approved",
          "type": "address"
        },
        {
          "indexed": true,
          "internalType": "uint256",
          "name": "tokenId",
          "type": "uint256"
        }
      ],
      "name": "Approval",
      "type": "event"
    },
    {
      "anonymous": false,
      "inputs": [
        {
          "indexed": true,
          "internalType": "address",
          "name": "owner",
          "type": "address"
        },
        {
          "indexed": true,
          "internalType": "address",
          "name": "operator",
          "type": "address"
        },
        {
          "indexed": false,
          "internalType": "bool",
          "name": "approved",
          "type": "bool"
        }
      ],
      "name": "ApprovalForAll",
      "type": "event"
    },
    {
      "anonymous": false,
      "inputs": [
        {
          "indexed": false,
          "internalType": "uint256",
          "name": "_fromTokenId",
          "type": "uint256"
        },
        {
          "indexed": false,
          "internalType": "uint256",
          "name": "_toTokenId",
          "type": "uint256"
        }
      ],
      "name": "BatchMetadataUpdate",
      "type": "event"
    },
    {
      "anonymous": false,
      "inputs": [
        {
          "indexed": false,
          "internalType": "uint8",
          "name": "version",
          "type": "uint8"
        }
      ],
      "name": "Initialized",
      "type": "event"
    },
    {
      "anonymous": false,
      "inputs": [
        {
          "indexed": false,
          "internalType": "uint256",
          "name": "_tokenId",
          "type": "uint256"
        }
      ],
      "name": "MetadataUpdate",
      "type": "event"
    },
    {
      "anonymous": false,
      "inputs": [
        {
          "indexed": true,
          "internalType": "address",
          "name": "from",
          "type": "address"
        },
        {
          "indexed": true,
          "internalType": "address",
          "name": "to",
          "type": "address"
        },
        {
          "indexed": true,
          "internalType": "uint256",
          "name": "tokenId",
          "type": "uint256"
        }
      ],
      "name": "Transfer",
      "type": "event"
    },
    {
      "inputs": [
        {
          "internalType": "uint256",
          "name": "tokenId",
          "type": "uint256"
        }
      ],
      "name": "EndAuc",
      "outputs": [],
      "stateMutability": "nonpayable",
      "type": "function"
    },
    {
      "inputs": [],
      "name": "_itemsSold",
      "outputs": [
        {
          "internalType": "uint256",
          "name": "",
          "type": "uint256"
        }
      ],
      "stateMutability": "view",
      "type": "function"
    },
    {
      "inputs": [],
      "name": "_tokenIds",
      "outputs": [
        {
          "internalType": "uint256",
          "name": "",
          "type": "uint256"
        }
      ],
      "stateMutability": "view",
      "type": "function"
    },
    {
      "inputs": [
        {
          "internalType": "address",
          "name": "to",
          "type": "address"
        },
        {
          "internalType": "uint256",
          "name": "tokenId",
          "type": "uint256"
        }
      ],
      "name": "approve",
      "outputs": [],
      "stateMutability": "nonpayable",
      "type": "function"
    },
    {
      "inputs": [
        {
          "internalType": "address",
          "name": "owner",
          "type": "address"
        }
      ],
      "name": "balanceOf",
      "outputs": [
        {
          "internalType": "uint256",
          "name": "",
          "type": "uint256"
        }
      ],
      "stateMutability": "view",
      "type": "function"
    },
    {
      "inputs": [],
      "name": "bidInc",
      "outputs": [
        {
          "internalType": "uint256",
          "name": "",
          "type": "uint256"
        }
      ],
      "stateMutability": "view",
      "type": "function"
    },
    {
      "inputs": [
        {
          "internalType": "uint256",
          "name": "",
          "type": "uint256"
        },
        {
          "internalType": "address",
          "name": "",
          "type": "address"
        }
      ],
      "name": "bids",
      "outputs": [
        {
          "internalType": "uint256",
          "name": "",
          "type": "uint256"
        }
      ],
      "stateMutability": "view",
      "type": "function"
    },
    {
      "inputs": [
        {
          "internalType": "uint256",
          "name": "tokenId",
          "type": "uint256"
        },
        {
          "internalType": "address payable",
          "name": "newOwner",
          "type": "address"
        }
      ],
      "name": "buyNFT",
      "outputs": [],
      "stateMutability": "nonpayable",
      "type": "function"
    },
    {
      "inputs": [
        {
          "internalType": "uint256",
          "name": "tokenId",
          "type": "uint256"
        }
      ],
      "name": "createMarketSale",
      "outputs": [],
      "stateMutability": "payable",
      "type": "function"
    },
    {
      "inputs": [
        {
          "internalType": "string",
          "name": "tokenURI",
          "type": "string"
        },
        {
          "internalType": "uint256",
          "name": "price",
          "type": "uint256"
        },
        {
          "internalType": "string",
          "name": "aboutNFT",
          "type": "string"
        }
      ],
      "name": "createToken",
      "outputs": [
        {
          "internalType": "uint256",
          "name": "",
          "type": "uint256"
        }
      ],
      "stateMutability": "payable",
      "type": "function"
    },
    {
      "inputs": [],
      "name": "fetchMarketItem",
      "outputs": [
        {
          "components": [
            {
              "internalType": "uint256",
              "name": "tokenId",
              "type": "uint256"
            },
            {
              "internalType": "address payable",
              "name": "seller",
              "type": "address"
            },
            {
              "internalType": "address payable",
              "name": "owner",
              "type": "address"
            },
            {
              "internalType": "uint256",
              "name": "price",
              "type": "uint256"
            },
            {
              "internalType": "bool",
              "name": "sold",
              "type": "bool"
            },
            {
              "internalType": "string",
              "name": "link",
              "type": "string"
            },
            {
              "internalType": "string",
              "name": "about",
              "type": "string"
            },
            {
              "internalType": "bool",
              "name": "auctionState",
              "type": "bool"
            },
            {
              "internalType": "uint256",
              "name": "endTime",
              "type": "uint256"
            },
            {
              "internalType": "address payable",
              "name": "highestBiddder",
              "type": "address"
            },
            {
              "internalType": "uint256",
              "name": "highestPayableBid",
              "type": "uint256"
            },
            {
              "internalType": "uint256",
              "name": "bidCount",
              "type": "uint256"
            }
          ],
          "internalType": "struct NFT_Marketplace2.MarketItem[]",
          "name": "",
          "type": "tuple[]"
        }
      ],
      "stateMutability": "view",
      "type": "function"
    },
    {
      "inputs": [],
      "name": "fetchMyNFT",
      "outputs": [
        {
          "components": [
            {
              "internalType": "uint256",
              "name": "tokenId",
              "type": "uint256"
            },
            {
              "internalType": "address payable",
              "name": "seller",
              "type": "address"
            },
            {
              "internalType": "address payable",
              "name": "owner",
              "type": "address"
            },
            {
              "internalType": "uint256",
              "name": "price",
              "type": "uint256"
            },
            {
              "internalType": "bool",
              "name": "sold",
              "type": "bool"
            },
            {
              "internalType": "string",
              "name": "link",
              "type": "string"
            },
            {
              "internalType": "string",
              "name": "about",
              "type": "string"
            },
            {
              "internalType": "bool",
              "name": "auctionState",
              "type": "bool"
            },
            {
              "internalType": "uint256",
              "name": "endTime",
              "type": "uint256"
            },
            {
              "internalType": "address payable",
              "name": "highestBiddder",
              "type": "address"
            },
            {
              "internalType": "uint256",
              "name": "highestPayableBid",
              "type": "uint256"
            },
            {
              "internalType": "uint256",
              "name": "bidCount",
              "type": "uint256"
            }
          ],
          "internalType": "struct NFT_Marketplace2.MarketItem[]",
          "name": "",
          "type": "tuple[]"
        }
      ],
      "stateMutability": "view",
      "type": "function"
    },
    {
      "inputs": [
        {
          "internalType": "uint256",
          "name": "tokenId",
          "type": "uint256"
        }
      ],
      "name": "finalizeBid",
      "outputs": [],
      "stateMutability": "nonpayable",
      "type": "function"
    },
    {
      "inputs": [
        {
          "internalType": "uint256",
          "name": "tokenId",
          "type": "uint256"
        }
      ],
      "name": "getApproved",
      "outputs": [
        {
          "internalType": "address",
          "name": "",
          "type": "address"
        }
      ],
      "stateMutability": "view",
      "type": "function"
    },
    {
      "inputs": [
        {
          "internalType": "address",
          "name": "visitor",
          "type": "address"
        }
      ],
      "name": "getMaxNFTData",
      "outputs": [
        {
          "internalType": "string",
          "name": "",
          "type": "string"
        }
      ],
      "stateMutability": "view",
      "type": "function"
    },
    {
      "inputs": [
        {
          "internalType": "uint256",
          "name": "",
          "type": "uint256"
        }
      ],
      "name": "idMarketItem",
      "outputs": [
        {
          "internalType": "uint256",
          "name": "tokenId",
          "type": "uint256"
        },
        {
          "internalType": "address payable",
          "name": "seller",
          "type": "address"
        },
        {
          "internalType": "address payable",
          "name": "owner",
          "type": "address"
        },
        {
          "internalType": "uint256",
          "name": "price",
          "type": "uint256"
        },
        {
          "internalType": "bool",
          "name": "sold",
          "type": "bool"
        },
        {
          "internalType": "string",
          "name": "link",
          "type": "string"
        },
        {
          "internalType": "string",
          "name": "about",
          "type": "string"
        },
        {
          "internalType": "bool",
          "name": "auctionState",
          "type": "bool"
        },
        {
          "internalType": "uint256",
          "name": "endTime",
          "type": "uint256"
        },
        {
          "internalType": "address payable",
          "name": "highestBiddder",
          "type": "address"
        },
        {
          "internalType": "uint256",
          "name": "highestPayableBid",
          "type": "uint256"
        },
        {
          "internalType": "uint256",
          "name": "bidCount",
          "type": "uint256"
        }
      ],
      "stateMutability": "view",
      "type": "function"
    },
    {
      "inputs": [
        {
          "internalType": "uint256",
          "name": "listPrice",
          "type": "uint256"
        }
      ],
      "name": "initialize",
      "outputs": [],
      "stateMutability": "nonpayable",
      "type": "function"
    },
    {
      "inputs": [
        {
          "internalType": "address",
          "name": "owner",
          "type": "address"
        },
        {
          "internalType": "address",
          "name": "operator",
          "type": "address"
        }
      ],
      "name": "isApprovedForAll",
      "outputs": [
        {
          "internalType": "bool",
          "name": "",
          "type": "bool"
        }
      ],
      "stateMutability": "view",
      "type": "function"
    },
    {
      "inputs": [],
      "name": "name",
      "outputs": [
        {
          "internalType": "string",
          "name": "",
          "type": "string"
        }
      ],
      "stateMutability": "view",
      "type": "function"
    },
    {
      "inputs": [
        {
          "internalType": "uint256",
          "name": "tokenId",
          "type": "uint256"
        }
      ],
      "name": "ownerOf",
      "outputs": [
        {
          "internalType": "address",
          "name": "",
          "type": "address"
        }
      ],
      "stateMutability": "view",
      "type": "function"
    },
    {
      "inputs": [
        {
          "internalType": "uint256",
          "name": "tokenId",
          "type": "uint256"
        }
      ],
      "name": "placeBid",
      "outputs": [],
      "stateMutability": "payable",
      "type": "function"
    },
    {
      "inputs": [
        {
          "internalType": "uint256",
          "name": "tokenId",
          "type": "uint256"
        },
        {
          "internalType": "uint256",
          "name": "price",
          "type": "uint256"
        }
      ],
      "name": "reSellToken",
      "outputs": [],
      "stateMutability": "payable",
      "type": "function"
    },
    {
      "inputs": [
        {
          "internalType": "address",
          "name": "",
          "type": "address"
        },
        {
          "internalType": "string",
          "name": "",
          "type": "string"
        }
      ],
      "name": "recomendation",
      "outputs": [
        {
          "internalType": "uint256",
          "name": "",
          "type": "uint256"
        }
      ],
      "stateMutability": "view",
      "type": "function"
    },
    {
      "inputs": [
        {
          "internalType": "address",
          "name": "from",
          "type": "address"
        },
        {
          "internalType": "address",
          "name": "to",
          "type": "address"
        },
        {
          "internalType": "uint256",
          "name": "tokenId",
          "type": "uint256"
        }
      ],
      "name": "safeTransferFrom",
      "outputs": [],
      "stateMutability": "nonpayable",
      "type": "function"
    },
    {
      "inputs": [
        {
          "internalType": "address",
          "name": "from",
          "type": "address"
        },
        {
          "internalType": "address",
          "name": "to",
          "type": "address"
        },
        {
          "internalType": "uint256",
          "name": "tokenId",
          "type": "uint256"
        },
        {
          "internalType": "bytes",
          "name": "data",
          "type": "bytes"
        }
      ],
      "name": "safeTransferFrom",
      "outputs": [],
      "stateMutability": "nonpayable",
      "type": "function"
    },
    {
      "inputs": [
        {
          "internalType": "address",
          "name": "operator",
          "type": "address"
        },
        {
          "internalType": "bool",
          "name": "approved",
          "type": "bool"
        }
      ],
      "name": "setApprovalForAll",
      "outputs": [],
      "stateMutability": "nonpayable",
      "type": "function"
    },
    {
      "inputs": [
        {
          "internalType": "uint256",
          "name": "tokenId",
          "type": "uint256"
        }
      ],
      "name": "startAuction",
      "outputs": [],
      "stateMutability": "nonpayable",
      "type": "function"
    },
    {
      "inputs": [
        {
          "internalType": "bytes4",
          "name": "interfaceId",
          "type": "bytes4"
        }
      ],
      "name": "supportsInterface",
      "outputs": [
        {
          "internalType": "bool",
          "name": "",
          "type": "bool"
        }
      ],
      "stateMutability": "view",
      "type": "function"
    },
    {
      "inputs": [],
      "name": "symbol",
      "outputs": [
        {
          "internalType": "string",
          "name": "",
          "type": "string"
        }
      ],
      "stateMutability": "view",
      "type": "function"
    },
    {
      "inputs": [
        {
          "internalType": "uint256",
          "name": "tokenId",
          "type": "uint256"
        }
      ],
      "name": "tokenURI",
      "outputs": [
        {
          "internalType": "string",
          "name": "",
          "type": "string"
        }
      ],
      "stateMutability": "view",
      "type": "function"
    },
    {
      "inputs": [
        {
          "internalType": "address",
          "name": "from",
          "type": "address"
        },
        {
          "internalType": "address",
          "name": "to",
          "type": "address"
        },
        {
          "internalType": "uint256",
          "name": "tokenId",
          "type": "uint256"
        }
      ],
      "name": "transferFrom",
      "outputs": [],
      "stateMutability": "nonpayable",
      "type": "function"
    }
  ],
  "bytecode": "0x608060405234801561001057600080fd5b50615aff80620000216000396000f3fe6080604052600436106101d85760003560e01c80638fafd02111610102578063c6c9b5b111610095578063e985e9c511610064578063e985e9c5146106c9578063eb3fc92e14610706578063f474a8021461072f578063fe4b84df1461076c576101d8565b8063c6c9b5b11461060a578063c87b56dd1461063a578063cb6cbe8f14610677578063d8db47a7146106a0576101d8565b8063aa46a400116100d1578063aa46a4001461056f578063b88d4fde1461059a578063be9af536146105c3578063c18763f7146105df576101d8565b80638fafd021146104d457806395d89b41146104ff5780639979ef451461052a578063a22cb46514610546576101d8565b806323b872dd1161017a57806370a082311161014957806370a082311461041357806385535b251461045057806387506a0d1461046c57806388a8001214610497576101d8565b806323b872dd146103475780633f1ffcec1461037057806342842e0e146103ad5780636352211e146103d6576101d8565b8063081812fc116101b6578063081812fc1461026e578063087ae8a2146102ab578063095ea7b3146102f357806315b246771461031c576101d8565b806301ffc9a7146101dd578063065de74c1461021a57806306fdde0314610243575b600080fd5b3480156101e957600080fd5b5061020460048036038101906101ff91906143ee565b610795565b6040516102119190614436565b60405180910390f35b34801561022657600080fd5b50610241600480360381019061023c9190614487565b6107f6565b005b34801561024f57600080fd5b506102586108ea565b604051610265919061454d565b60405180910390f35b34801561027a57600080fd5b5061029560048036038101906102909190614487565b61097c565b6040516102a291906145b0565b60405180910390f35b3480156102b757600080fd5b506102d260048036038101906102cd9190614487565b6109c2565b6040516102ea9c9b9a999897969594939291906145fb565b60405180910390f35b3480156102ff57600080fd5b5061031a600480360381019061031591906146ef565b610bac565b005b34801561032857600080fd5b50610331610cc4565b60405161033e919061472f565b60405180910390f35b34801561035357600080fd5b5061036e6004803603810190610369919061474a565b610cca565b005b34801561037c57600080fd5b506103976004803603810190610392919061479d565b610d2a565b6040516103a4919061472f565b60405180910390f35b3480156103b957600080fd5b506103d460048036038101906103cf919061474a565b610d4f565b005b3480156103e257600080fd5b506103fd60048036038101906103f89190614487565b610d6f565b60405161040a91906145b0565b60405180910390f35b34801561041f57600080fd5b5061043a600480360381019061043591906147dd565b610df6565b604051610447919061472f565b60405180910390f35b61046a6004803603810190610465919061480a565b610eae565b005b34801561047857600080fd5b50610481611104565b60405161048e919061472f565b60405180910390f35b3480156104a357600080fd5b506104be60048036038101906104b9919061497f565b61110a565b6040516104cb919061472f565b60405180910390f35b3480156104e057600080fd5b506104e9611145565b6040516104f69190614c1f565b60405180910390f35b34801561050b57600080fd5b5061051461154d565b604051610521919061454d565b60405180910390f35b610544600480360381019061053f9190614487565b6115df565b005b34801561055257600080fd5b5061056d60048036038101906105689190614c6d565b611a3b565b005b34801561057b57600080fd5b50610584611a51565b604051610591919061472f565b60405180910390f35b3480156105a657600080fd5b506105c160048036038101906105bc9190614d4e565b611a57565b005b6105dd60048036038101906105d89190614487565b611ab9565b005b3480156105eb57600080fd5b506105f4611b79565b6040516106019190614c1f565b60405180910390f35b610624600480360381019061061f9190614dd1565b612014565b604051610631919061472f565b60405180910390f35b34801561064657600080fd5b50610661600480360381019061065c9190614487565b612060565b60405161066e919061454d565b60405180910390f35b34801561068357600080fd5b5061069e60048036038101906106999190614487565b612173565b005b3480156106ac57600080fd5b506106c760048036038101906106c29190614e88565b6122c7565b005b3480156106d557600080fd5b506106f060048036038101906106eb9190614ec8565b612458565b6040516106fd9190614436565b60405180910390f35b34801561071257600080fd5b5061072d60048036038101906107289190614487565b6124ec565b005b34801561073b57600080fd5b50610756600480360381019061075191906147dd565b6127f5565b604051610763919061454d565b60405180910390f35b34801561077857600080fd5b50610793600480360381019061078e9190614487565b6128c6565b005b6000634906490660e01b7bffffffffffffffffffffffffffffffffffffffffffffffffffffffff1916827bffffffffffffffffffffffffffffffffffffffffffffffffffffffff191614806107ef57506107ee82612ac8565b5b9050919050565b3373ffffffffffffffffffffffffffffffffffffffff1660cd600083815260200190815260200160002060010160009054906101000a900473ffffffffffffffffffffffffffffffffffffffff1673ffffffffffffffffffffffffffffffffffffffff16148015610888575060cd600082815260200190815260200160002060040160009054906101000a900460ff16155b61089157600080fd5b600160cd600083815260200190815260200160002060070160006101000a81548160ff0219169083151502179055506078426108cd9190614f37565b60cd60008381526020019081526020016000206008018190555050565b6060606580546108f990614fbc565b80601f016020809104026020016040519081016040528092919081815260200182805461092590614fbc565b80156109725780601f1061094757610100808354040283529160200191610972565b820191906000526020600020905b81548152906001019060200180831161095557829003601f168201915b5050505050905090565b600061098782612baa565b6069600083815260200190815260200160002060009054906101000a900473ffffffffffffffffffffffffffffffffffffffff169050919050565b60cd6020528060005260406000206000915090508060000154908060010160009054906101000a900473ffffffffffffffffffffffffffffffffffffffff16908060020160009054906101000a900473ffffffffffffffffffffffffffffffffffffffff16908060030154908060040160009054906101000a900460ff1690806005018054610a5090614fbc565b80601f0160208091040260200160405190810160405280929190818152602001828054610a7c90614fbc565b8015610ac95780601f10610a9e57610100808354040283529160200191610ac9565b820191906000526020600020905b815481529060010190602001808311610aac57829003601f168201915b505050505090806006018054610ade90614fbc565b80601f0160208091040260200160405190810160405280929190818152602001828054610b0a90614fbc565b8015610b575780601f10610b2c57610100808354040283529160200191610b57565b820191906000526020600020905b815481529060010190602001808311610b3a57829003601f168201915b5050505050908060070160009054906101000a900460ff16908060080154908060090160009054906101000a900473ffffffffffffffffffffffffffffffffffffffff169080600a01549080600b015490508c565b6000610bb782610d6f565b90508073ffffffffffffffffffffffffffffffffffffffff168373ffffffffffffffffffffffffffffffffffffffff161415610c28576040517f08c379a0000000000000000000000000000000000000000000000000000000008152600401610c1f90615060565b60405180910390fd5b8073ffffffffffffffffffffffffffffffffffffffff16610c47612bf5565b73ffffffffffffffffffffffffffffffffffffffff161480610c765750610c7581610c70612bf5565b612458565b5b610cb5576040517f08c379a0000000000000000000000000000000000000000000000000000000008152600401610cac906150f2565b60405180910390fd5b610cbf8383612bfd565b505050565b60d15481565b610cdb610cd5612bf5565b82612cb6565b610d1a576040517f08c379a0000000000000000000000000000000000000000000000000000000008152600401610d1190615184565b60405180910390fd5b610d25838383612d4b565b505050565b60d0602052816000526040600020602052806000526040600020600091509150505481565b610d6a83838360405180602001604052806000815250611a57565b505050565b600080610d7b83613045565b9050600073ffffffffffffffffffffffffffffffffffffffff168173ffffffffffffffffffffffffffffffffffffffff161415610ded576040517f08c379a0000000000000000000000000000000000000000000000000000000008152600401610de4906151f0565b60405180910390fd5b80915050919050565b60008073ffffffffffffffffffffffffffffffffffffffff168273ffffffffffffffffffffffffffffffffffffffff161415610e67576040517f08c379a0000000000000000000000000000000000000000000000000000000008152600401610e5e90615282565b60405180910390fd5b606860008373ffffffffffffffffffffffffffffffffffffffff1673ffffffffffffffffffffffffffffffffffffffff168152602001908152602001600020549050919050565b3373ffffffffffffffffffffffffffffffffffffffff1660cd600084815260200190815260200160002060020160009054906101000a900473ffffffffffffffffffffffffffffffffffffffff1673ffffffffffffffffffffffffffffffffffffffff16148015610f20575060cb5434145b610f2957600080fd5b600060cd600084815260200190815260200160002060040160006101000a81548160ff0219169083151502179055508060cd6000848152602001908152602001600020600301819055503360cd600084815260200190815260200160002060010160006101000a81548173ffffffffffffffffffffffffffffffffffffffff021916908373ffffffffffffffffffffffffffffffffffffffff1602179055503060cd600084815260200190815260200160002060020160006101000a81548173ffffffffffffffffffffffffffffffffffffffff021916908373ffffffffffffffffffffffffffffffffffffffff160217905550600060cd600084815260200190815260200160002060070160006101000a81548160ff02191690831515021790555060ca600081548092919061105f906152a2565b9190505550600160ce60003373ffffffffffffffffffffffffffffffffffffffff1673ffffffffffffffffffffffffffffffffffffffff16815260200190815260200160002060cd60008581526020019081526020016000206006016040516110c8919061536b565b908152602001604051809103902060008282546110e59190615382565b925050819055506110f533613082565b611100333084612d4b565b5050565b60ca5481565b60ce60205281600052604060002081805160208101820180518482526020830160208501208183528095505050505050600091509150505481565b6060600060c9549050600060ca5460c9546111609190615382565b90506000808267ffffffffffffffff81111561117f5761117e614854565b5b6040519080825280602002602001820160405280156111b857816020015b6111a5614238565b81526020019060019003908161119d5790505b50905060005b84811015611542573073ffffffffffffffffffffffffffffffffffffffff1660cd60006001846111ee9190614f37565b815260200190815260200160002060020160009054906101000a900473ffffffffffffffffffffffffffffffffffffffff1673ffffffffffffffffffffffffffffffffffffffff16141561152f57600060018261124b9190614f37565b9050600060cd600083815260200190815260200160002090508060405180610180016040529081600082015481526020016001820160009054906101000a900473ffffffffffffffffffffffffffffffffffffffff1673ffffffffffffffffffffffffffffffffffffffff1673ffffffffffffffffffffffffffffffffffffffff1681526020016002820160009054906101000a900473ffffffffffffffffffffffffffffffffffffffff1673ffffffffffffffffffffffffffffffffffffffff1673ffffffffffffffffffffffffffffffffffffffff168152602001600382015481526020016004820160009054906101000a900460ff1615151515815260200160058201805461135c90614fbc565b80601f016020809104026020016040519081016040528092919081815260200182805461138890614fbc565b80156113d55780601f106113aa576101008083540402835291602001916113d5565b820191906000526020600020905b8154815290600101906020018083116113b857829003601f168201915b505050505081526020016006820180546113ee90614fbc565b80601f016020809104026020016040519081016040528092919081815260200182805461141a90614fbc565b80156114675780601f1061143c57610100808354040283529160200191611467565b820191906000526020600020905b81548152906001019060200180831161144a57829003601f168201915b505050505081526020016007820160009054906101000a900460ff16151515158152602001600882015481526020016009820160009054906101000a900473ffffffffffffffffffffffffffffffffffffffff1673ffffffffffffffffffffffffffffffffffffffff1673ffffffffffffffffffffffffffffffffffffffff168152602001600a8201548152602001600b82015481525050848681518110611512576115116153b6565b5b602002602001018190525060018561152a9190614f37565b945050505b808061153a906153e5565b9150506111be565b508094505050505090565b60606066805461155c90614fbc565b80601f016020809104026020016040519081016040528092919081815260200182805461158890614fbc565b80156115d55780601f106115aa576101008083540402835291602001916115d5565b820191906000526020600020905b8154815290600101906020018083116115b857829003601f168201915b5050505050905090565b60003460d0600084815260200190815260200160002060003373ffffffffffffffffffffffffffffffffffffffff1673ffffffffffffffffffffffffffffffffffffffff1681526020019081526020016000205461163d9190614f37565b905060cd6000838152602001908152602001600020600a01548111801561167a575060cd6000838152602001908152602001600020600801544211155b80156116e8575060cd600083815260200190815260200160002060010160009054906101000a900473ffffffffffffffffffffffffffffffffffffffff1673ffffffffffffffffffffffffffffffffffffffff163373ffffffffffffffffffffffffffffffffffffffff1614155b80156116fc5750670de0b6b3a76400003410155b61170557600080fd5b600060d0600084815260200190815260200160002060003373ffffffffffffffffffffffffffffffffffffffff1673ffffffffffffffffffffffffffffffffffffffff16815260200190815260200160002054141561178b5760cd6000838152602001908152602001600020600b016000815480929190611785906153e5565b91905055505b8060d0600084815260200190815260200160002060003373ffffffffffffffffffffffffffffffffffffffff1673ffffffffffffffffffffffffffffffffffffffff1681526020019081526020016000208190555060d06000838152602001908152602001600020600060cd600085815260200190815260200160002060090160009054906101000a900473ffffffffffffffffffffffffffffffffffffffff1673ffffffffffffffffffffffffffffffffffffffff1673ffffffffffffffffffffffffffffffffffffffff1681526020019081526020016000205481101561192a5761190b60d1548261187f9190614f37565b60d06000858152602001908152602001600020600060cd600087815260200190815260200160002060090160009054906101000a900473ffffffffffffffffffffffffffffffffffffffff1673ffffffffffffffffffffffffffffffffffffffff1673ffffffffffffffffffffffffffffffffffffffff1681526020019081526020016000205461330d565b60cd6000848152602001908152602001600020600a0181905550611a37565b6119c78160d15460d06000868152602001908152602001600020600060cd600088815260200190815260200160002060090160009054906101000a900473ffffffffffffffffffffffffffffffffffffffff1673ffffffffffffffffffffffffffffffffffffffff1673ffffffffffffffffffffffffffffffffffffffff168152602001908152602001600020546119c29190614f37565b61330d565b60cd6000848152602001908152602001600020600a01819055503360cd600084815260200190815260200160002060090160006101000a81548173ffffffffffffffffffffffffffffffffffffffff021916908373ffffffffffffffffffffffffffffffffffffffff1602179055505b5050565b611a4d611a46612bf5565b8383613328565b5050565b60c95481565b611a68611a62612bf5565b83612cb6565b611aa7576040517f08c379a0000000000000000000000000000000000000000000000000000000008152600401611a9e90615184565b60405180910390fd5b611ab384848484613495565b50505050565b600060cd600083815260200190815260200160002060030154905060cb5481611ae29190614f37565b341015611aee57600080fd5b60cd600083815260200190815260200160002060010160009054906101000a900473ffffffffffffffffffffffffffffffffffffffff1673ffffffffffffffffffffffffffffffffffffffff166108fc349081150290604051600060405180830381858888f19350505050158015611b6a573d6000803e3d6000fd5b50611b7582336122c7565b5050565b6060600060c954905060008060005b83811015611c29573373ffffffffffffffffffffffffffffffffffffffff1660cd6000600184611bb89190614f37565b815260200190815260200160002060020160009054906101000a900473ffffffffffffffffffffffffffffffffffffffff1673ffffffffffffffffffffffffffffffffffffffff161415611c1657600183611c139190614f37565b92505b8080611c21906153e5565b915050611b88565b5060008267ffffffffffffffff811115611c4657611c45614854565b5b604051908082528060200260200182016040528015611c7f57816020015b611c6c614238565b815260200190600190039081611c645790505b50905060005b84811015612009573373ffffffffffffffffffffffffffffffffffffffff1660cd6000600184611cb59190614f37565b815260200190815260200160002060020160009054906101000a900473ffffffffffffffffffffffffffffffffffffffff1673ffffffffffffffffffffffffffffffffffffffff161415611ff6576000600182611d129190614f37565b9050600060cd600083815260200190815260200160002090508060405180610180016040529081600082015481526020016001820160009054906101000a900473ffffffffffffffffffffffffffffffffffffffff1673ffffffffffffffffffffffffffffffffffffffff1673ffffffffffffffffffffffffffffffffffffffff1681526020016002820160009054906101000a900473ffffffffffffffffffffffffffffffffffffffff1673ffffffffffffffffffffffffffffffffffffffff1673ffffffffffffffffffffffffffffffffffffffff168152602001600382015481526020016004820160009054906101000a900460ff16151515158152602001600582018054611e2390614fbc565b80601f0160208091040260200160405190810160405280929190818152602001828054611e4f90614fbc565b8015611e9c5780601f10611e7157610100808354040283529160200191611e9c565b820191906000526020600020905b815481529060010190602001808311611e7f57829003601f168201915b50505050508152602001600682018054611eb590614fbc565b80601f0160208091040260200160405190810160405280929190818152602001828054611ee190614fbc565b8015611f2e5780601f10611f0357610100808354040283529160200191611f2e565b820191906000526020600020905b815481529060010190602001808311611f1157829003601f168201915b505050505081526020016007820160009054906101000a900460ff16151515158152602001600882015481526020016009820160009054906101000a900473ffffffffffffffffffffffffffffffffffffffff1673ffffffffffffffffffffffffffffffffffffffff1673ffffffffffffffffffffffffffffffffffffffff168152602001600a8201548152602001600b82015481525050848681518110611fd957611fd86153b6565b5b6020026020010181905250600185611ff19190614f37565b945050505b8080612001906153e5565b915050611c85565b508094505050505090565b600060c96000815480929190612029906153e5565b9190505550600060c954905061203f33826134f1565b612049818661370f565b612055818587866137ba565b809150509392505050565b606061206b82612baa565b600060976000848152602001908152602001600020805461208b90614fbc565b80601f01602080910402602001604051908101604052809291908181526020018280546120b790614fbc565b80156121045780601f106120d957610100808354040283529160200191612104565b820191906000526020600020905b8154815290600101906020018083116120e757829003601f168201915b505050505090506000612115613a2e565b905060008151141561212b57819250505061216e565b60008251111561216057808260405160200161214892919061545f565b6040516020818303038152906040529250505061216e565b61216984613a45565b925050505b919050565b600080600060d0600085815260200190815260200160002060003373ffffffffffffffffffffffffffffffffffffffff1673ffffffffffffffffffffffffffffffffffffffff16815260200190815260200160002054146122255733915060d0600084815260200190815260200160002060003373ffffffffffffffffffffffffffffffffffffffff1673ffffffffffffffffffffffffffffffffffffffff1681526020019081526020016000205490505b600060d0600085815260200190815260200160002060003373ffffffffffffffffffffffffffffffffffffffff1673ffffffffffffffffffffffffffffffffffffffff168152602001908152602001600020819055508173ffffffffffffffffffffffffffffffffffffffff166108fc829081150290604051600060405180830381858888f193505050501580156122c1573d6000803e3d6000fd5b50505050565b8060cd600084815260200190815260200160002060020160006101000a81548173ffffffffffffffffffffffffffffffffffffffff021916908373ffffffffffffffffffffffffffffffffffffffff160217905550600160cd600084815260200190815260200160002060040160006101000a81548160ff0219169083151502179055508060cd600084815260200190815260200160002060010160006101000a81548173ffffffffffffffffffffffffffffffffffffffff021916908373ffffffffffffffffffffffffffffffffffffffff16021790555060ca60008154809291906123b3906153e5565b9190505550600160ce60008373ffffffffffffffffffffffffffffffffffffffff1673ffffffffffffffffffffffffffffffffffffffff16815260200190815260200160002060cd600085815260200190815260200160002060060160405161241c919061536b565b908152602001604051809103902060008282546124399190614f37565b9250508190555061244981613082565b612454308284612d4b565b5050565b6000606a60008473ffffffffffffffffffffffffffffffffffffffff1673ffffffffffffffffffffffffffffffffffffffff16815260200190815260200160002060008373ffffffffffffffffffffffffffffffffffffffff1673ffffffffffffffffffffffffffffffffffffffff16815260200190815260200160002060009054906101000a900460ff16905092915050565b60cd600082815260200190815260200160002060080154421161250e57600080fd5b600060cd600083815260200190815260200160002060070160006101000a81548160ff02191690831515021790555060008073ffffffffffffffffffffffffffffffffffffffff1660cd600084815260200190815260200160002060090160009054906101000a900473ffffffffffffffffffffffffffffffffffffffff1673ffffffffffffffffffffffffffffffffffffffff16146127f15760cd600083815260200190815260200160002060090160009054906101000a900473ffffffffffffffffffffffffffffffffffffffff1673ffffffffffffffffffffffffffffffffffffffff163373ffffffffffffffffffffffffffffffffffffffff1614156127e6576605543df729c00060cd6000848152602001908152602001600020600a015460d06000858152602001908152602001600020600060cd600087815260200190815260200160002060090160009054906101000a900473ffffffffffffffffffffffffffffffffffffffff1673ffffffffffffffffffffffffffffffffffffffff1673ffffffffffffffffffffffffffffffffffffffff168152602001908152602001600020546126c29190615382565b6126cc9190615382565b9050600060d0600084815260200190815260200160002060003373ffffffffffffffffffffffffffffffffffffffff1673ffffffffffffffffffffffffffffffffffffffff1681526020019081526020016000208190555060cd600083815260200190815260200160002060010160009054906101000a900473ffffffffffffffffffffffffffffffffffffffff1673ffffffffffffffffffffffffffffffffffffffff166108fc829081150290604051600060405180830381858888f193505050501580156127a0573d6000803e3d6000fd5b506127e18260cd600085815260200190815260200160002060090160009054906101000a900473ffffffffffffffffffffffffffffffffffffffff166122c7565b6127f0565b6127ef82612173565b5b5b5050565b606060cf60008373ffffffffffffffffffffffffffffffffffffffff1673ffffffffffffffffffffffffffffffffffffffff168152602001908152602001600020805461284190614fbc565b80601f016020809104026020016040519081016040528092919081815260200182805461286d90614fbc565b80156128ba5780601f1061288f576101008083540402835291602001916128ba565b820191906000526020600020905b81548152906001019060200180831161289d57829003601f168201915b50505050509050919050565b60008060019054906101000a900460ff161590508080156128f75750600160008054906101000a900460ff1660ff16105b80612924575061290630613aad565b1580156129235750600160008054906101000a900460ff1660ff16145b5b612963576040517f08c379a000000000000000000000000000000000000000000000000000000000815260040161295a906154f5565b60405180910390fd5b60016000806101000a81548160ff021916908360ff16021790555080156129a0576001600060016101000a81548160ff0219169083151502179055505b612a146040518060400160405280601381526020017f4e4654204d657461766572736520546f6b656e000000000000000000000000008152506040518060400160405280600581526020017f4d594e4654000000000000000000000000000000000000000000000000000000815250613ad0565b3360cc60006101000a81548173ffffffffffffffffffffffffffffffffffffffff021916908373ffffffffffffffffffffffffffffffffffffffff1602179055508160cb81905550670de0b6b3a764000060d1819055508015612ac45760008060016101000a81548160ff0219169083151502179055507f7f26b83ff96e1f2b6a682f133852f6798a09c465da95921460cefb38474024986001604051612abb9190615567565b60405180910390a15b5050565b60007f80ac58cd000000000000000000000000000000000000000000000000000000007bffffffffffffffffffffffffffffffffffffffffffffffffffffffff1916827bffffffffffffffffffffffffffffffffffffffffffffffffffffffff19161480612b9357507f5b5e139f000000000000000000000000000000000000000000000000000000007bffffffffffffffffffffffffffffffffffffffffffffffffffffffff1916827bffffffffffffffffffffffffffffffffffffffffffffffffffffffff1916145b80612ba35750612ba282613b2d565b5b9050919050565b612bb381613b97565b612bf2576040517f08c379a0000000000000000000000000000000000000000000000000000000008152600401612be9906151f0565b60405180910390fd5b50565b600033905090565b816069600083815260200190815260200160002060006101000a81548173ffffffffffffffffffffffffffffffffffffffff021916908373ffffffffffffffffffffffffffffffffffffffff160217905550808273ffffffffffffffffffffffffffffffffffffffff16612c7083610d6f565b73ffffffffffffffffffffffffffffffffffffffff167f8c5be1e5ebec7d5bd14f71427d1e84f3dd0314c0f7b2291e5b200ac8c7c3b92560405160405180910390a45050565b600080612cc283610d6f565b90508073ffffffffffffffffffffffffffffffffffffffff168473ffffffffffffffffffffffffffffffffffffffff161480612d045750612d038185612458565b5b80612d4257508373ffffffffffffffffffffffffffffffffffffffff16612d2a8461097c565b73ffffffffffffffffffffffffffffffffffffffff16145b91505092915050565b8273ffffffffffffffffffffffffffffffffffffffff16612d6b82610d6f565b73ffffffffffffffffffffffffffffffffffffffff1614612dc1576040517f08c379a0000000000000000000000000000000000000000000000000000000008152600401612db8906155f4565b60405180910390fd5b600073ffffffffffffffffffffffffffffffffffffffff168273ffffffffffffffffffffffffffffffffffffffff161415612e31576040517f08c379a0000000000000000000000000000000000000000000000000000000008152600401612e2890615686565b60405180910390fd5b612e3e8383836001613bd8565b8273ffffffffffffffffffffffffffffffffffffffff16612e5e82610d6f565b73ffffffffffffffffffffffffffffffffffffffff1614612eb4576040517f08c379a0000000000000000000000000000000000000000000000000000000008152600401612eab906155f4565b60405180910390fd5b6069600082815260200190815260200160002060006101000a81549073ffffffffffffffffffffffffffffffffffffffff02191690556001606860008573ffffffffffffffffffffffffffffffffffffffff1673ffffffffffffffffffffffffffffffffffffffff168152602001908152602001600020600082825403925050819055506001606860008473ffffffffffffffffffffffffffffffffffffffff1673ffffffffffffffffffffffffffffffffffffffff16815260200190815260200160002060008282540192505081905550816067600083815260200190815260200160002060006101000a81548173ffffffffffffffffffffffffffffffffffffffff021916908373ffffffffffffffffffffffffffffffffffffffff160217905550808273ffffffffffffffffffffffffffffffffffffffff168473ffffffffffffffffffffffffffffffffffffffff167fddf252ad1be2c89b69c2b068fc378daa952ba7f163c4a11628f55a4df523b3ef60405160405180910390a46130408383836001613bde565b505050565b60006067600083815260200190815260200160002060009054906101000a900473ffffffffffffffffffffffffffffffffffffffff169050919050565b60006040518060c001604052806040518060400160405280600681526020017f67616d696e67000000000000000000000000000000000000000000000000000081525081526020016040518060400160405280600681526020017f686f72726f72000000000000000000000000000000000000000000000000000081525081526020016040518060400160405280600681526020017f6d6f6e6b6579000000000000000000000000000000000000000000000000000081525081526020016040518060400160405280600581526020017f616e696d6500000000000000000000000000000000000000000000000000000081525081526020016040518060400160405280600381526020017f617274000000000000000000000000000000000000000000000000000000000081525081526020016040518060400160405280600581526020017f6d6f76696500000000000000000000000000000000000000000000000000000081525081525090506000606060005b60068110156132b257600060ce60008773ffffffffffffffffffffffffffffffffffffffff1673ffffffffffffffffffffffffffffffffffffffff168152602001908152602001600020858360068110613255576132546153b6565b5b602002015160405161326791906156a6565b90815260200160405180910390205490508381111561329e57809350848260068110613296576132956153b6565b5b602002015192505b5080806132aa906153e5565b9150506131f8565b508060cf60008673ffffffffffffffffffffffffffffffffffffffff1673ffffffffffffffffffffffffffffffffffffffff16815260200190815260200160002090805190602001906133069291906142df565b5050505050565b600081831161331e57829050613322565b8190505b92915050565b8173ffffffffffffffffffffffffffffffffffffffff168373ffffffffffffffffffffffffffffffffffffffff161415613397576040517f08c379a000000000000000000000000000000000000000000000000000000000815260040161338e90615709565b60405180910390fd5b80606a60008573ffffffffffffffffffffffffffffffffffffffff1673ffffffffffffffffffffffffffffffffffffffff16815260200190815260200160002060008473ffffffffffffffffffffffffffffffffffffffff1673ffffffffffffffffffffffffffffffffffffffff16815260200190815260200160002060006101000a81548160ff0219169083151502179055508173ffffffffffffffffffffffffffffffffffffffff168373ffffffffffffffffffffffffffffffffffffffff167f17307eab39ab6107e8899845ad3d59bd9653f200f220920489ca2b5937696c31836040516134889190614436565b60405180910390a3505050565b6134a0848484612d4b565b6134ac84848484613be4565b6134eb576040517f08c379a00000000000000000000000000000000000000000000000000000000081526004016134e29061579b565b60405180910390fd5b50505050565b600073ffffffffffffffffffffffffffffffffffffffff168273ffffffffffffffffffffffffffffffffffffffff161415613561576040517f08c379a000000000000000000000000000000000000000000000000000000000815260040161355890615807565b60405180910390fd5b61356a81613b97565b156135aa576040517f08c379a00000000000000000000000000000000000000000000000000000000081526004016135a190615873565b60405180910390fd5b6135b8600083836001613bd8565b6135c181613b97565b15613601576040517f08c379a00000000000000000000000000000000000000000000000000000000081526004016135f890615873565b60405180910390fd5b6001606860008473ffffffffffffffffffffffffffffffffffffffff1673ffffffffffffffffffffffffffffffffffffffff16815260200190815260200160002060008282540192505081905550816067600083815260200190815260200160002060006101000a81548173ffffffffffffffffffffffffffffffffffffffff021916908373ffffffffffffffffffffffffffffffffffffffff160217905550808273ffffffffffffffffffffffffffffffffffffffff16600073ffffffffffffffffffffffffffffffffffffffff167fddf252ad1be2c89b69c2b068fc378daa952ba7f163c4a11628f55a4df523b3ef60405160405180910390a461370b600083836001613bde565b5050565b61371882613b97565b613757576040517f08c379a000000000000000000000000000000000000000000000000000000000815260040161374e90615905565b60405180910390fd5b8060976000848152602001908152602001600020908051906020019061377e9291906142df565b507ff8e1a15aba9398e019f0b49df1a4fde98ee17ae345cb5f6b5e2c27f5033e8ce7826040516137ae919061472f565b60405180910390a15050565b6000831180156137cb575060cb5434145b80156137dc57506137db81613d7b565b5b6137e557600080fd5b6040518061018001604052808581526020013373ffffffffffffffffffffffffffffffffffffffff1681526020013073ffffffffffffffffffffffffffffffffffffffff168152602001848152602001600015158152602001838152602001828152602001600015158152602001428152602001600073ffffffffffffffffffffffffffffffffffffffff16815260200160008152602001600081525060cd60008681526020019081526020016000206000820151816000015560208201518160010160006101000a81548173ffffffffffffffffffffffffffffffffffffffff021916908373ffffffffffffffffffffffffffffffffffffffff16021790555060408201518160020160006101000a81548173ffffffffffffffffffffffffffffffffffffffff021916908373ffffffffffffffffffffffffffffffffffffffff1602179055506060820151816003015560808201518160040160006101000a81548160ff02191690831515021790555060a08201518160050190805190602001906139739291906142df565b5060c08201518160060190805190602001906139909291906142df565b5060e08201518160070160006101000a81548160ff02191690831515021790555061010082015181600801556101208201518160090160006101000a81548173ffffffffffffffffffffffffffffffffffffffff021916908373ffffffffffffffffffffffffffffffffffffffff16021790555061014082015181600a015561016082015181600b0155905050613a28333086612d4b565b50505050565b606060405180602001604052806000815250905090565b6060613a5082612baa565b6000613a5a613a2e565b90506000815111613a7a5760405180602001604052806000815250613aa5565b80613a8484613f8c565b604051602001613a9592919061545f565b6040516020818303038152906040525b915050919050565b6000808273ffffffffffffffffffffffffffffffffffffffff163b119050919050565b600060019054906101000a900460ff16613b1f576040517f08c379a0000000000000000000000000000000000000000000000000000000008152600401613b1690615997565b60405180910390fd5b613b298282614064565b5050565b60007f01ffc9a7000000000000000000000000000000000000000000000000000000007bffffffffffffffffffffffffffffffffffffffffffffffffffffffff1916827bffffffffffffffffffffffffffffffffffffffffffffffffffffffff1916149050919050565b60008073ffffffffffffffffffffffffffffffffffffffff16613bb983613045565b73ffffffffffffffffffffffffffffffffffffffff1614159050919050565b50505050565b50505050565b6000613c058473ffffffffffffffffffffffffffffffffffffffff16613aad565b15613d6e578373ffffffffffffffffffffffffffffffffffffffff1663150b7a02613c2e612bf5565b8786866040518563ffffffff1660e01b8152600401613c509493929190615a0c565b602060405180830381600087803b158015613c6a57600080fd5b505af1925050508015613c9b57506040513d601f19601f82011682018060405250810190613c989190615a6d565b60015b613d1e573d8060008114613ccb576040519150601f19603f3d011682016040523d82523d6000602084013e613cd0565b606091505b50600081511415613d16576040517f08c379a0000000000000000000000000000000000000000000000000000000008152600401613d0d9061579b565b60405180910390fd5b805181602001fd5b63150b7a0260e01b7bffffffffffffffffffffffffffffffffffffffffffffffffffffffff1916817bffffffffffffffffffffffffffffffffffffffffffffffffffffffff191614915050613d73565b600190505b949350505050565b6000806040518060c001604052806040518060400160405280600681526020017f67616d696e67000000000000000000000000000000000000000000000000000081525081526020016040518060400160405280600681526020017f686f72726f72000000000000000000000000000000000000000000000000000081525081526020016040518060400160405280600681526020017f6d6f6e6b6579000000000000000000000000000000000000000000000000000081525081526020016040518060400160405280600581526020017f616e696d6500000000000000000000000000000000000000000000000000000081525081526020016040518060400160405280600381526020017f617274000000000000000000000000000000000000000000000000000000000081525081526020016040518060400160405280600581526020017f6d6f766965000000000000000000000000000000000000000000000000000000815250815250905060005b6006811015613f8057818160068110613f0a57613f096153b6565b5b6020020151604051602001613f1f91906156a6565b6040516020818303038152906040528051906020012084604051602001613f4691906156a6565b604051602081830303815290604052805190602001201415613f6d57600192505050613f87565b8080613f78906153e5565b915050613eee565b5060009150505b919050565b606060006001613f9b846140e5565b01905060008167ffffffffffffffff811115613fba57613fb9614854565b5b6040519080825280601f01601f191660200182016040528015613fec5781602001600182028036833780820191505090505b509050600082602001820190505b600115614059578080600190039150507f3031323334353637383961626364656600000000000000000000000000000000600a86061a8153600a858161404357614042615a9a565b5b049450600085141561405457614059565b613ffa565b819350505050919050565b600060019054906101000a900460ff166140b3576040517f08c379a00000000000000000000000000000000000000000000000000000000081526004016140aa90615997565b60405180910390fd5b81606590805190602001906140c99291906142df565b5080606690805190602001906140e09291906142df565b505050565b600080600090507a184f03e93ff9f4daa797ed6e38ed64bf6a1f0100000000000000008310614143577a184f03e93ff9f4daa797ed6e38ed64bf6a1f010000000000000000838161413957614138615a9a565b5b0492506040810190505b6d04ee2d6d415b85acef81000000008310614180576d04ee2d6d415b85acef8100000000838161417657614175615a9a565b5b0492506020810190505b662386f26fc1000083106141af57662386f26fc1000083816141a5576141a4615a9a565b5b0492506010810190505b6305f5e10083106141d8576305f5e10083816141ce576141cd615a9a565b5b0492506008810190505b61271083106141fd5761271083816141f3576141f2615a9a565b5b0492506004810190505b60648310614220576064838161421657614215615a9a565b5b0492506002810190505b600a831061422f576001810190505b80915050919050565b60405180610180016040528060008152602001600073ffffffffffffffffffffffffffffffffffffffff168152602001600073ffffffffffffffffffffffffffffffffffffffff16815260200160008152602001600015158152602001606081526020016060815260200160001515815260200160008152602001600073ffffffffffffffffffffffffffffffffffffffff16815260200160008152602001600081525090565b8280546142eb90614fbc565b90600052602060002090601f01602090048101928261430d5760008555614354565b82601f1061432657805160ff1916838001178555614354565b82800160010185558215614354579182015b82811115614353578251825591602001919060010190614338565b5b5090506143619190614365565b5090565b5b8082111561437e576000816000905550600101614366565b5090565b6000604051905090565b600080fd5b600080fd5b60007fffffffff0000000000000000000000000000000000000000000000000000000082169050919050565b6143cb81614396565b81146143d657600080fd5b50565b6000813590506143e8816143c2565b92915050565b6000602082840312156144045761440361438c565b5b6000614412848285016143d9565b91505092915050565b60008115159050919050565b6144308161441b565b82525050565b600060208201905061444b6000830184614427565b92915050565b6000819050919050565b61446481614451565b811461446f57600080fd5b50565b6000813590506144818161445b565b92915050565b60006020828403121561449d5761449c61438c565b5b60006144ab84828501614472565b91505092915050565b600081519050919050565b600082825260208201905092915050565b60005b838110156144ee5780820151818401526020810190506144d3565b838111156144fd576000848401525b50505050565b6000601f19601f8301169050919050565b600061451f826144b4565b61452981856144bf565b93506145398185602086016144d0565b61454281614503565b840191505092915050565b600060208201905081810360008301526145678184614514565b905092915050565b600073ffffffffffffffffffffffffffffffffffffffff82169050919050565b600061459a8261456f565b9050919050565b6145aa8161458f565b82525050565b60006020820190506145c560008301846145a1565b92915050565b6145d481614451565b82525050565b60006145e58261456f565b9050919050565b6145f5816145da565b82525050565b600061018082019050614611600083018f6145cb565b61461e602083018e6145ec565b61462b604083018d6145ec565b614638606083018c6145cb565b614645608083018b614427565b81810360a0830152614657818a614514565b905081810360c083015261466b8189614514565b905061467a60e0830188614427565b6146886101008301876145cb565b6146966101208301866145ec565b6146a46101408301856145cb565b6146b26101608301846145cb565b9d9c50505050505050505050505050565b6146cc8161458f565b81146146d757600080fd5b50565b6000813590506146e9816146c3565b92915050565b600080604083850312156147065761470561438c565b5b6000614714858286016146da565b925050602061472585828601614472565b9150509250929050565b600060208201905061474460008301846145cb565b92915050565b6000806000606084860312156147635761476261438c565b5b6000614771868287016146da565b9350506020614782868287016146da565b925050604061479386828701614472565b9150509250925092565b600080604083850312156147b4576147b361438c565b5b60006147c285828601614472565b92505060206147d3858286016146da565b9150509250929050565b6000602082840312156147f3576147f261438c565b5b6000614801848285016146da565b91505092915050565b600080604083850312156148215761482061438c565b5b600061482f85828601614472565b925050602061484085828601614472565b9150509250929050565b600080fd5b600080fd5b7f4e487b7100000000000000000000000000000000000000000000000000000000600052604160045260246000fd5b61488c82614503565b810181811067ffffffffffffffff821117156148ab576148aa614854565b5b80604052505050565b60006148be614382565b90506148ca8282614883565b919050565b600067ffffffffffffffff8211156148ea576148e9614854565b5b6148f382614503565b9050602081019050919050565b82818337600083830152505050565b600061492261491d846148cf565b6148b4565b90508281526020810184848401111561493e5761493d61484f565b5b614949848285614900565b509392505050565b600082601f8301126149665761496561484a565b5b813561497684826020860161490f565b91505092915050565b600080604083850312156149965761499561438c565b5b60006149a4858286016146da565b925050602083013567ffffffffffffffff8111156149c5576149c4614391565b5b6149d185828601614951565b9150509250929050565b600081519050919050565b600082825260208201905092915050565b6000819050602082019050919050565b614a1081614451565b82525050565b614a1f816145da565b82525050565b614a2e8161441b565b82525050565b600082825260208201905092915050565b6000614a50826144b4565b614a5a8185614a34565b9350614a6a8185602086016144d0565b614a7381614503565b840191505092915050565b600061018083016000830151614a976000860182614a07565b506020830151614aaa6020860182614a16565b506040830151614abd6040860182614a16565b506060830151614ad06060860182614a07565b506080830151614ae36080860182614a25565b5060a083015184820360a0860152614afb8282614a45565b91505060c083015184820360c0860152614b158282614a45565b91505060e0830151614b2a60e0860182614a25565b50610100830151614b3f610100860182614a07565b50610120830151614b54610120860182614a16565b50610140830151614b69610140860182614a07565b50610160830151614b7e610160860182614a07565b508091505092915050565b6000614b958383614a7e565b905092915050565b6000602082019050919050565b6000614bb5826149db565b614bbf81856149e6565b935083602082028501614bd1856149f7565b8060005b85811015614c0d5784840389528151614bee8582614b89565b9450614bf983614b9d565b925060208a01995050600181019050614bd5565b50829750879550505050505092915050565b60006020820190508181036000830152614c398184614baa565b905092915050565b614c4a8161441b565b8114614c5557600080fd5b50565b600081359050614c6781614c41565b92915050565b60008060408385031215614c8457614c8361438c565b5b6000614c92858286016146da565b9250506020614ca385828601614c58565b9150509250929050565b600067ffffffffffffffff821115614cc857614cc7614854565b5b614cd182614503565b9050602081019050919050565b6000614cf1614cec84614cad565b6148b4565b905082815260208101848484011115614d0d57614d0c61484f565b5b614d18848285614900565b509392505050565b600082601f830112614d3557614d3461484a565b5b8135614d45848260208601614cde565b91505092915050565b60008060008060808587031215614d6857614d6761438c565b5b6000614d76878288016146da565b9450506020614d87878288016146da565b9350506040614d9887828801614472565b925050606085013567ffffffffffffffff811115614db957614db8614391565b5b614dc587828801614d20565b91505092959194509250565b600080600060608486031215614dea57614de961438c565b5b600084013567ffffffffffffffff811115614e0857614e07614391565b5b614e1486828701614951565b9350506020614e2586828701614472565b925050604084013567ffffffffffffffff811115614e4657614e45614391565b5b614e5286828701614951565b9150509250925092565b614e65816145da565b8114614e7057600080fd5b50565b600081359050614e8281614e5c565b92915050565b60008060408385031215614e9f57614e9e61438c565b5b6000614ead85828601614472565b9250506020614ebe85828601614e73565b9150509250929050565b60008060408385031215614edf57614ede61438c565b5b6000614eed858286016146da565b9250506020614efe858286016146da565b9150509250929050565b7f4e487b7100000000000000000000000000000000000000000000000000000000600052601160045260246000fd5b6000614f4282614451565b9150614f4d83614451565b9250827fffffffffffffffffffffffffffffffffffffffffffffffffffffffffffffffff03821115614f8257614f81614f08565b5b828201905092915050565b7f4e487b7100000000000000000000000000000000000000000000000000000000600052602260045260246000fd5b60006002820490506001821680614fd457607f821691505b60208210811415614fe857614fe7614f8d565b5b50919050565b7f4552433732313a20617070726f76616c20746f2063757272656e74206f776e6560008201527f7200000000000000000000000000000000000000000000000000000000000000602082015250565b600061504a6021836144bf565b915061505582614fee565b604082019050919050565b600060208201905081810360008301526150798161503d565b9050919050565b7f4552433732313a20617070726f76652063616c6c6572206973206e6f7420746f60008201527f6b656e206f776e6572206f7220617070726f76656420666f7220616c6c000000602082015250565b60006150dc603d836144bf565b91506150e782615080565b604082019050919050565b6000602082019050818103600083015261510b816150cf565b9050919050565b7f4552433732313a2063616c6c6572206973206e6f7420746f6b656e206f776e6560008201527f72206f7220617070726f76656400000000000000000000000000000000000000602082015250565b600061516e602d836144bf565b915061517982615112565b604082019050919050565b6000602082019050818103600083015261519d81615161565b9050919050565b7f4552433732313a20696e76616c696420746f6b656e2049440000000000000000600082015250565b60006151da6018836144bf565b91506151e5826151a4565b602082019050919050565b60006020820190508181036000830152615209816151cd565b9050919050565b7f4552433732313a2061646472657373207a65726f206973206e6f74206120766160008201527f6c6964206f776e65720000000000000000000000000000000000000000000000602082015250565b600061526c6029836144bf565b915061527782615210565b604082019050919050565b6000602082019050818103600083015261529b8161525f565b9050919050565b60006152ad82614451565b915060008214156152c1576152c0614f08565b5b600182039050919050565b600081905092915050565b60008190508160005260206000209050919050565b600081546152f981614fbc565b61530381866152cc565b9450600182166000811461531e576001811461532f57615362565b60ff19831686528186019350615362565b615338856152d7565b60005b8381101561535a5781548189015260018201915060208101905061533b565b838801955050505b50505092915050565b600061537782846152ec565b915081905092915050565b600061538d82614451565b915061539883614451565b9250828210156153ab576153aa614f08565b5b828203905092915050565b7f4e487b7100000000000000000000000000000000000000000000000000000000600052603260045260246000fd5b60006153f082614451565b91507fffffffffffffffffffffffffffffffffffffffffffffffffffffffffffffffff82141561542357615422614f08565b5b600182019050919050565b6000615439826144b4565b61544381856152cc565b93506154538185602086016144d0565b80840191505092915050565b600061546b828561542e565b9150615477828461542e565b91508190509392505050565b7f496e697469616c697a61626c653a20636f6e747261637420697320616c72656160008201527f647920696e697469616c697a6564000000000000000000000000000000000000602082015250565b60006154df602e836144bf565b91506154ea82615483565b604082019050919050565b6000602082019050818103600083015261550e816154d2565b9050919050565b6000819050919050565b600060ff82169050919050565b6000819050919050565b600061555161554c61554784615515565b61552c565b61551f565b9050919050565b61556181615536565b82525050565b600060208201905061557c6000830184615558565b92915050565b7f4552433732313a207472616e736665722066726f6d20696e636f72726563742060008201527f6f776e6572000000000000000000000000000000000000000000000000000000602082015250565b60006155de6025836144bf565b91506155e982615582565b604082019050919050565b6000602082019050818103600083015261560d816155d1565b9050919050565b7f4552433732313a207472616e7366657220746f20746865207a65726f2061646460008201527f7265737300000000000000000000000000000000000000000000000000000000602082015250565b60006156706024836144bf565b915061567b82615614565b604082019050919050565b6000602082019050818103600083015261569f81615663565b9050919050565b60006156b2828461542e565b915081905092915050565b7f4552433732313a20617070726f766520746f2063616c6c657200000000000000600082015250565b60006156f36019836144bf565b91506156fe826156bd565b602082019050919050565b60006020820190508181036000830152615722816156e6565b9050919050565b7f4552433732313a207472616e7366657220746f206e6f6e20455243373231526560008201527f63656976657220696d706c656d656e7465720000000000000000000000000000602082015250565b60006157856032836144bf565b915061579082615729565b604082019050919050565b600060208201905081810360008301526157b481615778565b9050919050565b7f4552433732313a206d696e7420746f20746865207a65726f2061646472657373600082015250565b60006157f16020836144bf565b91506157fc826157bb565b602082019050919050565b60006020820190508181036000830152615820816157e4565b9050919050565b7f4552433732313a20746f6b656e20616c7265616479206d696e74656400000000600082015250565b600061585d601c836144bf565b915061586882615827565b602082019050919050565b6000602082019050818103600083015261588c81615850565b9050919050565b7f45524337323155524953746f726167653a2055524920736574206f66206e6f6e60008201527f6578697374656e7420746f6b656e000000000000000000000000000000000000602082015250565b60006158ef602e836144bf565b91506158fa82615893565b604082019050919050565b6000602082019050818103600083015261591e816158e2565b9050919050565b7f496e697469616c697a61626c653a20636f6e7472616374206973206e6f74206960008201527f6e697469616c697a696e67000000000000000000000000000000000000000000602082015250565b6000615981602b836144bf565b915061598c82615925565b604082019050919050565b600060208201905081810360008301526159b081615974565b9050919050565b600081519050919050565b600082825260208201905092915050565b60006159de826159b7565b6159e881856159c2565b93506159f88185602086016144d0565b615a0181614503565b840191505092915050565b6000608082019050615a2160008301876145a1565b615a2e60208301866145a1565b615a3b60408301856145cb565b8181036060830152615a4d81846159d3565b905095945050505050565b600081519050615a67816143c2565b92915050565b600060208284031215615a8357615a8261438c565b5b6000615a9184828501615a58565b91505092915050565b7f4e487b7100000000000000000000000000000000000000000000000000000000600052601260045260246000fdfea26469706673582212206eab2fc4865361a407ac675de806e11fc04d5904b1b87ccf5f7c7ad61d489ab964736f6c63430008090033",
  "linkReferences": {},
  "deployedLinkReferences": {}
}