{
  "_format": "hh-sol-artifact-1",
  "contractName": "NFT_Marketplace",
  "sourceName": "contracts/NFT_Marketplace.sol",
  "abi": [
    {
      "anonymous": false,
      "inputs": [
        {
          "indexed": true,
          "internalType": "address",
          "name": "owner",
          "type": "address"
        },
        {
          "indexed": true,
          "internalType": "address",
          "name": "approved",
          "type": "address"
        },
        {
          "indexed": true,
          "internalType": "uint256",
          "name": "tokenId",
          "type": "uint256"
        }
      ],
      "name": "Approval",
      "type": "event"
    },
    {
      "anonymous": false,
      "inputs": [
        {
          "indexed": true,
          "internalType": "address",
          "name": "owner",
          "type": "address"
        },
        {
          "indexed": true,
          "internalType": "address",
          "name": "operator",
          "type": "address"
        },
        {
          "indexed": false,
          "internalType": "bool",
          "name": "approved",
          "type": "bool"
        }
      ],
      "name": "ApprovalForAll",
      "type": "event"
    },
    {
      "anonymous": false,
      "inputs": [
        {
          "indexed": false,
          "internalType": "uint256",
          "name": "_fromTokenId",
          "type": "uint256"
        },
        {
          "indexed": false,
          "internalType": "uint256",
          "name": "_toTokenId",
          "type": "uint256"
        }
      ],
      "name": "BatchMetadataUpdate",
      "type": "event"
    },
    {
      "anonymous": false,
      "inputs": [
        {
          "indexed": false,
          "internalType": "uint8",
          "name": "version",
          "type": "uint8"
        }
      ],
      "name": "Initialized",
      "type": "event"
    },
    {
      "anonymous": false,
      "inputs": [
        {
          "indexed": false,
          "internalType": "uint256",
          "name": "_tokenId",
          "type": "uint256"
        }
      ],
      "name": "MetadataUpdate",
      "type": "event"
    },
    {
      "anonymous": false,
      "inputs": [
        {
          "indexed": true,
          "internalType": "address",
          "name": "from",
          "type": "address"
        },
        {
          "indexed": true,
          "internalType": "address",
          "name": "to",
          "type": "address"
        },
        {
          "indexed": true,
          "internalType": "uint256",
          "name": "tokenId",
          "type": "uint256"
        }
      ],
      "name": "Transfer",
      "type": "event"
    },
    {
      "inputs": [
        {
          "internalType": "uint256",
          "name": "tokenId",
          "type": "uint256"
        }
      ],
      "name": "EndAuc",
      "outputs": [],
      "stateMutability": "nonpayable",
      "type": "function"
    },
    {
      "inputs": [],
      "name": "_itemsSold",
      "outputs": [
        {
          "internalType": "uint256",
          "name": "",
          "type": "uint256"
        }
      ],
      "stateMutability": "view",
      "type": "function"
    },
    {
      "inputs": [],
      "name": "_tokenIds",
      "outputs": [
        {
          "internalType": "uint256",
          "name": "",
          "type": "uint256"
        }
      ],
      "stateMutability": "view",
      "type": "function"
    },
    {
      "inputs": [
        {
          "internalType": "uint256",
          "name": "",
          "type": "uint256"
        }
      ],
      "name": "actualEnd",
      "outputs": [
        {
          "internalType": "string",
          "name": "",
          "type": "string"
        }
      ],
      "stateMutability": "view",
      "type": "function"
    },
    {
      "inputs": [
        {
          "internalType": "address",
          "name": "to",
          "type": "address"
        },
        {
          "internalType": "uint256",
          "name": "tokenId",
          "type": "uint256"
        }
      ],
      "name": "approve",
      "outputs": [],
      "stateMutability": "nonpayable",
      "type": "function"
    },
    {
      "inputs": [
        {
          "internalType": "address",
          "name": "owner",
          "type": "address"
        }
      ],
      "name": "balanceOf",
      "outputs": [
        {
          "internalType": "uint256",
          "name": "",
          "type": "uint256"
        }
      ],
      "stateMutability": "view",
      "type": "function"
    },
    {
      "inputs": [],
      "name": "bidInc",
      "outputs": [
        {
          "internalType": "uint256",
          "name": "",
          "type": "uint256"
        }
      ],
      "stateMutability": "view",
      "type": "function"
    },
    {
      "inputs": [
        {
          "internalType": "uint256",
          "name": "",
          "type": "uint256"
        },
        {
          "internalType": "address",
          "name": "",
          "type": "address"
        }
      ],
      "name": "bids",
      "outputs": [
        {
          "internalType": "uint256",
          "name": "",
          "type": "uint256"
        }
      ],
      "stateMutability": "view",
      "type": "function"
    },
    {
      "inputs": [
        {
          "internalType": "uint256",
          "name": "tokenId",
          "type": "uint256"
        },
        {
          "internalType": "address payable",
          "name": "newOwner",
          "type": "address"
        }
      ],
      "name": "buyNFT",
      "outputs": [],
      "stateMutability": "nonpayable",
      "type": "function"
    },
    {
      "inputs": [
        {
          "internalType": "uint256",
          "name": "tokenId",
          "type": "uint256"
        }
      ],
      "name": "createMarketSale",
      "outputs": [],
      "stateMutability": "payable",
      "type": "function"
    },
    {
      "inputs": [
        {
          "internalType": "string",
          "name": "tokenURI",
          "type": "string"
        },
        {
          "internalType": "uint256",
          "name": "price",
          "type": "uint256"
        },
        {
          "internalType": "string",
          "name": "aboutNFT",
          "type": "string"
        }
      ],
      "name": "createToken",
      "outputs": [
        {
          "internalType": "uint256",
          "name": "",
          "type": "uint256"
        }
      ],
      "stateMutability": "payable",
      "type": "function"
    },
    {
      "inputs": [],
      "name": "fetchMarketItem",
      "outputs": [
        {
          "components": [
            {
              "internalType": "uint256",
              "name": "tokenId",
              "type": "uint256"
            },
            {
              "internalType": "address payable",
              "name": "seller",
              "type": "address"
            },
            {
              "internalType": "address payable",
              "name": "owner",
              "type": "address"
            },
            {
              "internalType": "uint256",
              "name": "price",
              "type": "uint256"
            },
            {
              "internalType": "bool",
              "name": "sold",
              "type": "bool"
            },
            {
              "internalType": "string",
              "name": "link",
              "type": "string"
            },
            {
              "internalType": "string",
              "name": "about",
              "type": "string"
            },
            {
              "internalType": "bool",
              "name": "auctionState",
              "type": "bool"
            },
            {
              "internalType": "uint256",
              "name": "endTime",
              "type": "uint256"
            },
            {
              "internalType": "address payable",
              "name": "highestBiddder",
              "type": "address"
            },
            {
              "internalType": "uint256",
              "name": "highestPayableBid",
              "type": "uint256"
            },
            {
              "internalType": "uint256",
              "name": "bidCount",
              "type": "uint256"
            }
          ],
          "internalType": "struct NFT_Marketplace.MarketItem[]",
          "name": "",
          "type": "tuple[]"
        }
      ],
      "stateMutability": "view",
      "type": "function"
    },
    {
      "inputs": [],
      "name": "fetchMyNFT",
      "outputs": [
        {
          "components": [
            {
              "internalType": "uint256",
              "name": "tokenId",
              "type": "uint256"
            },
            {
              "internalType": "address payable",
              "name": "seller",
              "type": "address"
            },
            {
              "internalType": "address payable",
              "name": "owner",
              "type": "address"
            },
            {
              "internalType": "uint256",
              "name": "price",
              "type": "uint256"
            },
            {
              "internalType": "bool",
              "name": "sold",
              "type": "bool"
            },
            {
              "internalType": "string",
              "name": "link",
              "type": "string"
            },
            {
              "internalType": "string",
              "name": "about",
              "type": "string"
            },
            {
              "internalType": "bool",
              "name": "auctionState",
              "type": "bool"
            },
            {
              "internalType": "uint256",
              "name": "endTime",
              "type": "uint256"
            },
            {
              "internalType": "address payable",
              "name": "highestBiddder",
              "type": "address"
            },
            {
              "internalType": "uint256",
              "name": "highestPayableBid",
              "type": "uint256"
            },
            {
              "internalType": "uint256",
              "name": "bidCount",
              "type": "uint256"
            }
          ],
          "internalType": "struct NFT_Marketplace.MarketItem[]",
          "name": "",
          "type": "tuple[]"
        }
      ],
      "stateMutability": "view",
      "type": "function"
    },
    {
      "inputs": [
        {
          "internalType": "uint256",
          "name": "tokenId",
          "type": "uint256"
        }
      ],
      "name": "getApproved",
      "outputs": [
        {
          "internalType": "address",
          "name": "",
          "type": "address"
        }
      ],
      "stateMutability": "view",
      "type": "function"
    },
    {
      "inputs": [
        {
          "internalType": "address",
          "name": "visitor",
          "type": "address"
        }
      ],
      "name": "getMaxNFTData",
      "outputs": [
        {
          "internalType": "string",
          "name": "",
          "type": "string"
        }
      ],
      "stateMutability": "view",
      "type": "function"
    },
    {
      "inputs": [
        {
          "internalType": "uint256",
          "name": "",
          "type": "uint256"
        }
      ],
      "name": "idMarketItem",
      "outputs": [
        {
          "internalType": "uint256",
          "name": "tokenId",
          "type": "uint256"
        },
        {
          "internalType": "address payable",
          "name": "seller",
          "type": "address"
        },
        {
          "internalType": "address payable",
          "name": "owner",
          "type": "address"
        },
        {
          "internalType": "uint256",
          "name": "price",
          "type": "uint256"
        },
        {
          "internalType": "bool",
          "name": "sold",
          "type": "bool"
        },
        {
          "internalType": "string",
          "name": "link",
          "type": "string"
        },
        {
          "internalType": "string",
          "name": "about",
          "type": "string"
        },
        {
          "internalType": "bool",
          "name": "auctionState",
          "type": "bool"
        },
        {
          "internalType": "uint256",
          "name": "endTime",
          "type": "uint256"
        },
        {
          "internalType": "address payable",
          "name": "highestBiddder",
          "type": "address"
        },
        {
          "internalType": "uint256",
          "name": "highestPayableBid",
          "type": "uint256"
        },
        {
          "internalType": "uint256",
          "name": "bidCount",
          "type": "uint256"
        }
      ],
      "stateMutability": "view",
      "type": "function"
    },
    {
      "inputs": [
        {
          "internalType": "uint256",
          "name": "listPrice",
          "type": "uint256"
        }
      ],
      "name": "initialize",
      "outputs": [],
      "stateMutability": "nonpayable",
      "type": "function"
    },
    {
      "inputs": [
        {
          "internalType": "address",
          "name": "owner",
          "type": "address"
        },
        {
          "internalType": "address",
          "name": "operator",
          "type": "address"
        }
      ],
      "name": "isApprovedForAll",
      "outputs": [
        {
          "internalType": "bool",
          "name": "",
          "type": "bool"
        }
      ],
      "stateMutability": "view",
      "type": "function"
    },
    {
      "inputs": [],
      "name": "name",
      "outputs": [
        {
          "internalType": "string",
          "name": "",
          "type": "string"
        }
      ],
      "stateMutability": "view",
      "type": "function"
    },
    {
      "inputs": [
        {
          "internalType": "uint256",
          "name": "tokenId",
          "type": "uint256"
        }
      ],
      "name": "ownerOf",
      "outputs": [
        {
          "internalType": "address",
          "name": "",
          "type": "address"
        }
      ],
      "stateMutability": "view",
      "type": "function"
    },
    {
      "inputs": [
        {
          "internalType": "uint256",
          "name": "tokenId",
          "type": "uint256"
        }
      ],
      "name": "placeBid",
      "outputs": [],
      "stateMutability": "payable",
      "type": "function"
    },
    {
      "inputs": [
        {
          "internalType": "uint256",
          "name": "tokenId",
          "type": "uint256"
        },
        {
          "internalType": "uint256",
          "name": "price",
          "type": "uint256"
        }
      ],
      "name": "reSellToken",
      "outputs": [],
      "stateMutability": "payable",
      "type": "function"
    },
    {
      "inputs": [
        {
          "internalType": "address",
          "name": "",
          "type": "address"
        },
        {
          "internalType": "string",
          "name": "",
          "type": "string"
        }
      ],
      "name": "recomendation",
      "outputs": [
        {
          "internalType": "uint256",
          "name": "",
          "type": "uint256"
        }
      ],
      "stateMutability": "view",
      "type": "function"
    },
    {
      "inputs": [
        {
          "internalType": "address",
          "name": "from",
          "type": "address"
        },
        {
          "internalType": "address",
          "name": "to",
          "type": "address"
        },
        {
          "internalType": "uint256",
          "name": "tokenId",
          "type": "uint256"
        }
      ],
      "name": "safeTransferFrom",
      "outputs": [],
      "stateMutability": "nonpayable",
      "type": "function"
    },
    {
      "inputs": [
        {
          "internalType": "address",
          "name": "from",
          "type": "address"
        },
        {
          "internalType": "address",
          "name": "to",
          "type": "address"
        },
        {
          "internalType": "uint256",
          "name": "tokenId",
          "type": "uint256"
        },
        {
          "internalType": "bytes",
          "name": "data",
          "type": "bytes"
        }
      ],
      "name": "safeTransferFrom",
      "outputs": [],
      "stateMutability": "nonpayable",
      "type": "function"
    },
    {
      "inputs": [
        {
          "internalType": "address",
          "name": "operator",
          "type": "address"
        },
        {
          "internalType": "bool",
          "name": "approved",
          "type": "bool"
        }
      ],
      "name": "setApprovalForAll",
      "outputs": [],
      "stateMutability": "nonpayable",
      "type": "function"
    },
    {
      "inputs": [
        {
          "internalType": "uint256",
          "name": "tokenId",
          "type": "uint256"
        },
        {
          "internalType": "string",
          "name": "endTime",
          "type": "string"
        }
      ],
      "name": "startAuction",
      "outputs": [],
      "stateMutability": "nonpayable",
      "type": "function"
    },
    {
      "inputs": [
        {
          "internalType": "bytes4",
          "name": "interfaceId",
          "type": "bytes4"
        }
      ],
      "name": "supportsInterface",
      "outputs": [
        {
          "internalType": "bool",
          "name": "",
          "type": "bool"
        }
      ],
      "stateMutability": "view",
      "type": "function"
    },
    {
      "inputs": [],
      "name": "symbol",
      "outputs": [
        {
          "internalType": "string",
          "name": "",
          "type": "string"
        }
      ],
      "stateMutability": "view",
      "type": "function"
    },
    {
      "inputs": [
        {
          "internalType": "uint256",
          "name": "tokenId",
          "type": "uint256"
        }
      ],
      "name": "tokenURI",
      "outputs": [
        {
          "internalType": "string",
          "name": "",
          "type": "string"
        }
      ],
      "stateMutability": "view",
      "type": "function"
    },
    {
      "inputs": [
        {
          "internalType": "address",
          "name": "from",
          "type": "address"
        },
        {
          "internalType": "address",
          "name": "to",
          "type": "address"
        },
        {
          "internalType": "uint256",
          "name": "tokenId",
          "type": "uint256"
        }
      ],
      "name": "transferFrom",
      "outputs": [],
      "stateMutability": "nonpayable",
      "type": "function"
    }
  ],
  "bytecode": "0x608060405234801561001057600080fd5b50615c9f80620000216000396000f3fe6080604052600436106101d85760003560e01c80638fafd02111610102578063c6c9b5b111610095578063e985e9c511610064578063e985e9c5146106dd578063eb3fc92e1461071a578063f474a80214610743578063fe4b84df14610780576101d8565b8063c6c9b5b11461060a578063c87b56dd1461063a578063d8db47a714610677578063da0e15b8146106a0576101d8565b8063aa46a400116100d1578063aa46a4001461056f578063b88d4fde1461059a578063be9af536146105c3578063c18763f7146105df576101d8565b80638fafd021146104d457806395d89b41146104ff5780639979ef451461052a578063a22cb46514610546576101d8565b80633f1ffcec1161017a5780637bb8e8bc116101495780637bb8e8bc1461042757806385535b251461045057806387506a0d1461046c57806388a8001214610497576101d8565b80633f1ffcec1461034757806342842e0e146103845780636352211e146103ad57806370a08231146103ea576101d8565b8063087ae8a2116101b6578063087ae8a214610282578063095ea7b3146102ca57806315b24677146102f357806323b872dd1461031e576101d8565b806301ffc9a7146101dd57806306fdde031461021a578063081812fc14610245575b600080fd5b3480156101e957600080fd5b5061020460048036038101906101ff9190614532565b6107a9565b604051610211919061457a565b60405180910390f35b34801561022657600080fd5b5061022f61080a565b60405161023c919061462e565b60405180910390f35b34801561025157600080fd5b5061026c60048036038101906102679190614686565b61089c565b60405161027991906146f4565b60405180910390f35b34801561028e57600080fd5b506102a960048036038101906102a49190614686565b6108e2565b6040516102c19c9b9a9998979695949392919061473f565b60405180910390f35b3480156102d657600080fd5b506102f160048036038101906102ec9190614833565b610acc565b005b3480156102ff57600080fd5b50610308610be4565b6040516103159190614873565b60405180910390f35b34801561032a57600080fd5b506103456004803603810190610340919061488e565b610bea565b005b34801561035357600080fd5b5061036e600480360381019061036991906148e1565b610c4a565b60405161037b9190614873565b60405180910390f35b34801561039057600080fd5b506103ab60048036038101906103a6919061488e565b610c6f565b005b3480156103b957600080fd5b506103d460048036038101906103cf9190614686565b610c8f565b6040516103e191906146f4565b60405180910390f35b3480156103f657600080fd5b50610411600480360381019061040c9190614921565b610d16565b60405161041e9190614873565b60405180910390f35b34801561043357600080fd5b5061044e60048036038101906104499190614a83565b610dce565b005b61046a60048036038101906104659190614adf565b610eeb565b005b34801561047857600080fd5b50610481611141565b60405161048e9190614873565b60405180910390f35b3480156104a357600080fd5b506104be60048036038101906104b99190614b1f565b611147565b6040516104cb9190614873565b60405180910390f35b3480156104e057600080fd5b506104e9611182565b6040516104f69190614dbf565b60405180910390f35b34801561050b57600080fd5b5061051461158a565b604051610521919061462e565b60405180910390f35b610544600480360381019061053f9190614686565b61161c565b005b34801561055257600080fd5b5061056d60048036038101906105689190614e0d565b6119b2565b005b34801561057b57600080fd5b506105846119c8565b6040516105919190614873565b60405180910390f35b3480156105a657600080fd5b506105c160048036038101906105bc9190614eee565b6119ce565b005b6105dd60048036038101906105d89190614686565b611a30565b005b3480156105eb57600080fd5b506105f4611af0565b6040516106019190614dbf565b60405180910390f35b610624600480360381019061061f9190614f71565b611f8b565b6040516106319190614873565b60405180910390f35b34801561064657600080fd5b50610661600480360381019061065c9190614686565b611fd7565b60405161066e919061462e565b60405180910390f35b34801561068357600080fd5b5061069e60048036038101906106999190615028565b6120ea565b005b3480156106ac57600080fd5b506106c760048036038101906106c29190614686565b61227b565b6040516106d4919061462e565b60405180910390f35b3480156106e957600080fd5b5061070460048036038101906106ff9190615068565b61231b565b604051610711919061457a565b60405180910390f35b34801561072657600080fd5b50610741600480360381019061073c9190614686565b6123af565b005b34801561074f57600080fd5b5061076a60048036038101906107659190614921565b612939565b604051610777919061462e565b60405180910390f35b34801561078c57600080fd5b506107a760048036038101906107a29190614686565b612a0a565b005b6000634906490660e01b7bffffffffffffffffffffffffffffffffffffffffffffffffffffffff1916827bffffffffffffffffffffffffffffffffffffffffffffffffffffffff19161480610803575061080282612c0c565b5b9050919050565b606060658054610819906150d7565b80601f0160208091040260200160405190810160405280929190818152602001828054610845906150d7565b80156108925780601f1061086757610100808354040283529160200191610892565b820191906000526020600020905b81548152906001019060200180831161087557829003601f168201915b5050505050905090565b60006108a782612cee565b6069600083815260200190815260200160002060009054906101000a900473ffffffffffffffffffffffffffffffffffffffff169050919050565b60cd6020528060005260406000206000915090508060000154908060010160009054906101000a900473ffffffffffffffffffffffffffffffffffffffff16908060020160009054906101000a900473ffffffffffffffffffffffffffffffffffffffff16908060030154908060040160009054906101000a900460ff1690806005018054610970906150d7565b80601f016020809104026020016040519081016040528092919081815260200182805461099c906150d7565b80156109e95780601f106109be576101008083540402835291602001916109e9565b820191906000526020600020905b8154815290600101906020018083116109cc57829003601f168201915b5050505050908060060180546109fe906150d7565b80601f0160208091040260200160405190810160405280929190818152602001828054610a2a906150d7565b8015610a775780601f10610a4c57610100808354040283529160200191610a77565b820191906000526020600020905b815481529060010190602001808311610a5a57829003601f168201915b5050505050908060070160009054906101000a900460ff16908060080154908060090160009054906101000a900473ffffffffffffffffffffffffffffffffffffffff169080600a01549080600b015490508c565b6000610ad782610c8f565b90508073ffffffffffffffffffffffffffffffffffffffff168373ffffffffffffffffffffffffffffffffffffffff161415610b48576040517f08c379a0000000000000000000000000000000000000000000000000000000008152600401610b3f9061517b565b60405180910390fd5b8073ffffffffffffffffffffffffffffffffffffffff16610b67612d39565b73ffffffffffffffffffffffffffffffffffffffff161480610b965750610b9581610b90612d39565b61231b565b5b610bd5576040517f08c379a0000000000000000000000000000000000000000000000000000000008152600401610bcc9061520d565b60405180910390fd5b610bdf8383612d41565b505050565b60d25481565b610bfb610bf5612d39565b82612dfa565b610c3a576040517f08c379a0000000000000000000000000000000000000000000000000000000008152600401610c319061529f565b60405180910390fd5b610c45838383612e8f565b505050565b60d0602052816000526040600020602052806000526040600020600091509150505481565b610c8a838383604051806020016040528060008152506119ce565b505050565b600080610c9b83613189565b9050600073ffffffffffffffffffffffffffffffffffffffff168173ffffffffffffffffffffffffffffffffffffffff161415610d0d576040517f08c379a0000000000000000000000000000000000000000000000000000000008152600401610d049061530b565b60405180910390fd5b80915050919050565b60008073ffffffffffffffffffffffffffffffffffffffff168273ffffffffffffffffffffffffffffffffffffffff161415610d87576040517f08c379a0000000000000000000000000000000000000000000000000000000008152600401610d7e9061539d565b60405180910390fd5b606860008373ffffffffffffffffffffffffffffffffffffffff1673ffffffffffffffffffffffffffffffffffffffff168152602001908152602001600020549050919050565b3373ffffffffffffffffffffffffffffffffffffffff1660cd600084815260200190815260200160002060010160009054906101000a900473ffffffffffffffffffffffffffffffffffffffff1673ffffffffffffffffffffffffffffffffffffffff16148015610e60575060cd600083815260200190815260200160002060040160009054906101000a900460ff16155b610e6957600080fd5b600160cd600084815260200190815260200160002060070160006101000a81548160ff021916908315150217905550607842610ea591906153ec565b60cd6000848152602001908152602001600020600801819055508060d160008481526020019081526020016000209080519060200190610ee692919061437c565b505050565b3373ffffffffffffffffffffffffffffffffffffffff1660cd600084815260200190815260200160002060020160009054906101000a900473ffffffffffffffffffffffffffffffffffffffff1673ffffffffffffffffffffffffffffffffffffffff16148015610f5d575060cb5434145b610f6657600080fd5b600060cd600084815260200190815260200160002060040160006101000a81548160ff0219169083151502179055508060cd6000848152602001908152602001600020600301819055503360cd600084815260200190815260200160002060010160006101000a81548173ffffffffffffffffffffffffffffffffffffffff021916908373ffffffffffffffffffffffffffffffffffffffff1602179055503060cd600084815260200190815260200160002060020160006101000a81548173ffffffffffffffffffffffffffffffffffffffff021916908373ffffffffffffffffffffffffffffffffffffffff160217905550600060cd600084815260200190815260200160002060070160006101000a81548160ff02191690831515021790555060ca600081548092919061109c90615442565b9190505550600160ce60003373ffffffffffffffffffffffffffffffffffffffff1673ffffffffffffffffffffffffffffffffffffffff16815260200190815260200160002060cd6000858152602001908152602001600020600601604051611105919061550b565b908152602001604051809103902060008282546111229190615522565b92505081905550611132336131c6565b61113d333084612e8f565b5050565b60ca5481565b60ce60205281600052604060002081805160208101820180518482526020830160208501208183528095505050505050600091509150505481565b6060600060c9549050600060ca5460c95461119d9190615522565b90506000808267ffffffffffffffff8111156111bc576111bb614958565b5b6040519080825280602002602001820160405280156111f557816020015b6111e2614402565b8152602001906001900390816111da5790505b50905060005b8481101561157f573073ffffffffffffffffffffffffffffffffffffffff1660cd600060018461122b91906153ec565b815260200190815260200160002060020160009054906101000a900473ffffffffffffffffffffffffffffffffffffffff1673ffffffffffffffffffffffffffffffffffffffff16141561156c57600060018261128891906153ec565b9050600060cd600083815260200190815260200160002090508060405180610180016040529081600082015481526020016001820160009054906101000a900473ffffffffffffffffffffffffffffffffffffffff1673ffffffffffffffffffffffffffffffffffffffff1673ffffffffffffffffffffffffffffffffffffffff1681526020016002820160009054906101000a900473ffffffffffffffffffffffffffffffffffffffff1673ffffffffffffffffffffffffffffffffffffffff1673ffffffffffffffffffffffffffffffffffffffff168152602001600382015481526020016004820160009054906101000a900460ff16151515158152602001600582018054611399906150d7565b80601f01602080910402602001604051908101604052809291908181526020018280546113c5906150d7565b80156114125780601f106113e757610100808354040283529160200191611412565b820191906000526020600020905b8154815290600101906020018083116113f557829003601f168201915b5050505050815260200160068201805461142b906150d7565b80601f0160208091040260200160405190810160405280929190818152602001828054611457906150d7565b80156114a45780601f10611479576101008083540402835291602001916114a4565b820191906000526020600020905b81548152906001019060200180831161148757829003601f168201915b505050505081526020016007820160009054906101000a900460ff16151515158152602001600882015481526020016009820160009054906101000a900473ffffffffffffffffffffffffffffffffffffffff1673ffffffffffffffffffffffffffffffffffffffff1673ffffffffffffffffffffffffffffffffffffffff168152602001600a8201548152602001600b8201548152505084868151811061154f5761154e615556565b5b602002602001018190525060018561156791906153ec565b945050505b808061157790615585565b9150506111fb565b508094505050505090565b606060668054611599906150d7565b80601f01602080910402602001604051908101604052809291908181526020018280546115c5906150d7565b80156116125780601f106115e757610100808354040283529160200191611612565b820191906000526020600020905b8154815290600101906020018083116115f557829003601f168201915b5050505050905090565b60003460d0600084815260200190815260200160002060003373ffffffffffffffffffffffffffffffffffffffff1673ffffffffffffffffffffffffffffffffffffffff1681526020019081526020016000205461167a91906153ec565b9050600060d0600084815260200190815260200160002060003373ffffffffffffffffffffffffffffffffffffffff1673ffffffffffffffffffffffffffffffffffffffff1681526020019081526020016000205414156117025760cd6000838152602001908152602001600020600b0160008154809291906116fc90615585565b91905055505b8060d0600084815260200190815260200160002060003373ffffffffffffffffffffffffffffffffffffffff1673ffffffffffffffffffffffffffffffffffffffff1681526020019081526020016000208190555060d06000838152602001908152602001600020600060cd600085815260200190815260200160002060090160009054906101000a900473ffffffffffffffffffffffffffffffffffffffff1673ffffffffffffffffffffffffffffffffffffffff1673ffffffffffffffffffffffffffffffffffffffff168152602001908152602001600020548110156118a15761188260d254826117f691906153ec565b60d06000858152602001908152602001600020600060cd600087815260200190815260200160002060090160009054906101000a900473ffffffffffffffffffffffffffffffffffffffff1673ffffffffffffffffffffffffffffffffffffffff1673ffffffffffffffffffffffffffffffffffffffff16815260200190815260200160002054613451565b60cd6000848152602001908152602001600020600a01819055506119ae565b61193e8160d25460d06000868152602001908152602001600020600060cd600088815260200190815260200160002060090160009054906101000a900473ffffffffffffffffffffffffffffffffffffffff1673ffffffffffffffffffffffffffffffffffffffff1673ffffffffffffffffffffffffffffffffffffffff1681526020019081526020016000205461193991906153ec565b613451565b60cd6000848152602001908152602001600020600a01819055503360cd600084815260200190815260200160002060090160006101000a81548173ffffffffffffffffffffffffffffffffffffffff021916908373ffffffffffffffffffffffffffffffffffffffff1602179055505b5050565b6119c46119bd612d39565b838361346c565b5050565b60c95481565b6119df6119d9612d39565b83612dfa565b611a1e576040517f08c379a0000000000000000000000000000000000000000000000000000000008152600401611a159061529f565b60405180910390fd5b611a2a848484846135d9565b50505050565b600060cd600083815260200190815260200160002060030154905060cb5481611a5991906153ec565b341015611a6557600080fd5b60cd600083815260200190815260200160002060010160009054906101000a900473ffffffffffffffffffffffffffffffffffffffff1673ffffffffffffffffffffffffffffffffffffffff166108fc349081150290604051600060405180830381858888f19350505050158015611ae1573d6000803e3d6000fd5b50611aec82336120ea565b5050565b6060600060c954905060008060005b83811015611ba0573373ffffffffffffffffffffffffffffffffffffffff1660cd6000600184611b2f91906153ec565b815260200190815260200160002060020160009054906101000a900473ffffffffffffffffffffffffffffffffffffffff1673ffffffffffffffffffffffffffffffffffffffff161415611b8d57600183611b8a91906153ec565b92505b8080611b9890615585565b915050611aff565b5060008267ffffffffffffffff811115611bbd57611bbc614958565b5b604051908082528060200260200182016040528015611bf657816020015b611be3614402565b815260200190600190039081611bdb5790505b50905060005b84811015611f80573373ffffffffffffffffffffffffffffffffffffffff1660cd6000600184611c2c91906153ec565b815260200190815260200160002060020160009054906101000a900473ffffffffffffffffffffffffffffffffffffffff1673ffffffffffffffffffffffffffffffffffffffff161415611f6d576000600182611c8991906153ec565b9050600060cd600083815260200190815260200160002090508060405180610180016040529081600082015481526020016001820160009054906101000a900473ffffffffffffffffffffffffffffffffffffffff1673ffffffffffffffffffffffffffffffffffffffff1673ffffffffffffffffffffffffffffffffffffffff1681526020016002820160009054906101000a900473ffffffffffffffffffffffffffffffffffffffff1673ffffffffffffffffffffffffffffffffffffffff1673ffffffffffffffffffffffffffffffffffffffff168152602001600382015481526020016004820160009054906101000a900460ff16151515158152602001600582018054611d9a906150d7565b80601f0160208091040260200160405190810160405280929190818152602001828054611dc6906150d7565b8015611e135780601f10611de857610100808354040283529160200191611e13565b820191906000526020600020905b815481529060010190602001808311611df657829003601f168201915b50505050508152602001600682018054611e2c906150d7565b80601f0160208091040260200160405190810160405280929190818152602001828054611e58906150d7565b8015611ea55780601f10611e7a57610100808354040283529160200191611ea5565b820191906000526020600020905b815481529060010190602001808311611e8857829003601f168201915b505050505081526020016007820160009054906101000a900460ff16151515158152602001600882015481526020016009820160009054906101000a900473ffffffffffffffffffffffffffffffffffffffff1673ffffffffffffffffffffffffffffffffffffffff1673ffffffffffffffffffffffffffffffffffffffff168152602001600a8201548152602001600b82015481525050848681518110611f5057611f4f615556565b5b6020026020010181905250600185611f6891906153ec565b945050505b8080611f7890615585565b915050611bfc565b508094505050505090565b600060c96000815480929190611fa090615585565b9190505550600060c9549050611fb63382613635565b611fc08186613853565b611fcc818587866138fe565b809150509392505050565b6060611fe282612cee565b6000609760008481526020019081526020016000208054612002906150d7565b80601f016020809104026020016040519081016040528092919081815260200182805461202e906150d7565b801561207b5780601f106120505761010080835404028352916020019161207b565b820191906000526020600020905b81548152906001019060200180831161205e57829003601f168201915b50505050509050600061208c613b72565b90506000815114156120a25781925050506120e5565b6000825111156120d75780826040516020016120bf9291906155ff565b604051602081830303815290604052925050506120e5565b6120e084613b89565b925050505b919050565b8060cd600084815260200190815260200160002060020160006101000a81548173ffffffffffffffffffffffffffffffffffffffff021916908373ffffffffffffffffffffffffffffffffffffffff160217905550600160cd600084815260200190815260200160002060040160006101000a81548160ff0219169083151502179055508060cd600084815260200190815260200160002060010160006101000a81548173ffffffffffffffffffffffffffffffffffffffff021916908373ffffffffffffffffffffffffffffffffffffffff16021790555060ca60008154809291906121d690615585565b9190505550600160ce60008373ffffffffffffffffffffffffffffffffffffffff1673ffffffffffffffffffffffffffffffffffffffff16815260200190815260200160002060cd600085815260200190815260200160002060060160405161223f919061550b565b9081526020016040518091039020600082825461225c91906153ec565b9250508190555061226c816131c6565b612277308284612e8f565b5050565b60d1602052806000526040600020600091509050805461229a906150d7565b80601f01602080910402602001604051908101604052809291908181526020018280546122c6906150d7565b80156123135780601f106122e857610100808354040283529160200191612313565b820191906000526020600020905b8154815290600101906020018083116122f657829003601f168201915b505050505081565b6000606a60008473ffffffffffffffffffffffffffffffffffffffff1673ffffffffffffffffffffffffffffffffffffffff16815260200190815260200160002060008373ffffffffffffffffffffffffffffffffffffffff1673ffffffffffffffffffffffffffffffffffffffff16815260200190815260200160002060009054906101000a900460ff16905092915050565b600060cd600083815260200190815260200160002060090160009054906101000a900473ffffffffffffffffffffffffffffffffffffffff169050600060cd600084815260200190815260200160002060010160009054906101000a900473ffffffffffffffffffffffffffffffffffffffff169050600060cd6000858152602001908152602001600020600a015490506000339050600060cd6000878152602001908152602001600020600b0154905060cd600087815260200190815260200160002060080154421180156124b157508473ffffffffffffffffffffffffffffffffffffffff163373ffffffffffffffffffffffffffffffffffffffff1614155b6124ba57600080fd5b600073ffffffffffffffffffffffffffffffffffffffff168573ffffffffffffffffffffffffffffffffffffffff16146128f85760008473ffffffffffffffffffffffffffffffffffffffff168373ffffffffffffffffffffffffffffffffffffffff16141561279e578360d0600089815260200190815260200160002060008873ffffffffffffffffffffffffffffffffffffffff1673ffffffffffffffffffffffffffffffffffffffff16815260200190815260200160002054141561263a57600060d0600089815260200190815260200160002060008873ffffffffffffffffffffffffffffffffffffffff1673ffffffffffffffffffffffffffffffffffffffff168152602001908152602001600020819055508473ffffffffffffffffffffffffffffffffffffffff166108fc6605543df729c000866125ff9190615522565b9081150290604051600060405180830381858888f1935050505015801561262a573d6000803e3d6000fd5b5061263587876120ea565b612799565b6605543df729c0008460d060008a815260200190815260200160002060008973ffffffffffffffffffffffffffffffffffffffff1673ffffffffffffffffffffffffffffffffffffffff1681526020019081526020016000205461269e9190615522565b6126a89190615522565b9050600060d0600089815260200190815260200160002060008873ffffffffffffffffffffffffffffffffffffffff1673ffffffffffffffffffffffffffffffffffffffff168152602001908152602001600020819055508473ffffffffffffffffffffffffffffffffffffffff166108fc859081150290604051600060405180830381858888f19350505050158015612746573d6000803e3d6000fd5b508573ffffffffffffffffffffffffffffffffffffffff166108fc829081150290604051600060405180830381858888f1935050505015801561278d573d6000803e3d6000fd5b5061279887876120ea565b5b6128e8565b600060d0600089815260200190815260200160002060008573ffffffffffffffffffffffffffffffffffffffff1673ffffffffffffffffffffffffffffffffffffffff16815260200190815260200160002054146128e75760d0600088815260200190815260200160002060008473ffffffffffffffffffffffffffffffffffffffff1673ffffffffffffffffffffffffffffffffffffffff168152602001908152602001600020549050600060d0600089815260200190815260200160002060008573ffffffffffffffffffffffffffffffffffffffff1673ffffffffffffffffffffffffffffffffffffffff168152602001908152602001600020819055508273ffffffffffffffffffffffffffffffffffffffff166108fc829081150290604051600060405180830381858888f193505050501580156128e5573d6000803e3d6000fd5b505b5b81806128f390615442565b925050505b600081141561293157600060cd600088815260200190815260200160002060070160006101000a81548160ff0219169083151502179055505b505050505050565b606060cf60008373ffffffffffffffffffffffffffffffffffffffff1673ffffffffffffffffffffffffffffffffffffffff1681526020019081526020016000208054612985906150d7565b80601f01602080910402602001604051908101604052809291908181526020018280546129b1906150d7565b80156129fe5780601f106129d3576101008083540402835291602001916129fe565b820191906000526020600020905b8154815290600101906020018083116129e157829003601f168201915b50505050509050919050565b60008060019054906101000a900460ff16159050808015612a3b5750600160008054906101000a900460ff1660ff16105b80612a685750612a4a30613bf1565b158015612a675750600160008054906101000a900460ff1660ff16145b5b612aa7576040517f08c379a0000000000000000000000000000000000000000000000000000000008152600401612a9e90615695565b60405180910390fd5b60016000806101000a81548160ff021916908360ff1602179055508015612ae4576001600060016101000a81548160ff0219169083151502179055505b612b586040518060400160405280601381526020017f4e4654204d657461766572736520546f6b656e000000000000000000000000008152506040518060400160405280600581526020017f4d594e4654000000000000000000000000000000000000000000000000000000815250613c14565b3360cc60006101000a81548173ffffffffffffffffffffffffffffffffffffffff021916908373ffffffffffffffffffffffffffffffffffffffff1602179055508160cb81905550670de0b6b3a764000060d2819055508015612c085760008060016101000a81548160ff0219169083151502179055507f7f26b83ff96e1f2b6a682f133852f6798a09c465da95921460cefb38474024986001604051612bff9190615707565b60405180910390a15b5050565b60007f80ac58cd000000000000000000000000000000000000000000000000000000007bffffffffffffffffffffffffffffffffffffffffffffffffffffffff1916827bffffffffffffffffffffffffffffffffffffffffffffffffffffffff19161480612cd757507f5b5e139f000000000000000000000000000000000000000000000000000000007bffffffffffffffffffffffffffffffffffffffffffffffffffffffff1916827bffffffffffffffffffffffffffffffffffffffffffffffffffffffff1916145b80612ce75750612ce682613c71565b5b9050919050565b612cf781613cdb565b612d36576040517f08c379a0000000000000000000000000000000000000000000000000000000008152600401612d2d9061530b565b60405180910390fd5b50565b600033905090565b816069600083815260200190815260200160002060006101000a81548173ffffffffffffffffffffffffffffffffffffffff021916908373ffffffffffffffffffffffffffffffffffffffff160217905550808273ffffffffffffffffffffffffffffffffffffffff16612db483610c8f565b73ffffffffffffffffffffffffffffffffffffffff167f8c5be1e5ebec7d5bd14f71427d1e84f3dd0314c0f7b2291e5b200ac8c7c3b92560405160405180910390a45050565b600080612e0683610c8f565b90508073ffffffffffffffffffffffffffffffffffffffff168473ffffffffffffffffffffffffffffffffffffffff161480612e485750612e47818561231b565b5b80612e8657508373ffffffffffffffffffffffffffffffffffffffff16612e6e8461089c565b73ffffffffffffffffffffffffffffffffffffffff16145b91505092915050565b8273ffffffffffffffffffffffffffffffffffffffff16612eaf82610c8f565b73ffffffffffffffffffffffffffffffffffffffff1614612f05576040517f08c379a0000000000000000000000000000000000000000000000000000000008152600401612efc90615794565b60405180910390fd5b600073ffffffffffffffffffffffffffffffffffffffff168273ffffffffffffffffffffffffffffffffffffffff161415612f75576040517f08c379a0000000000000000000000000000000000000000000000000000000008152600401612f6c90615826565b60405180910390fd5b612f828383836001613d1c565b8273ffffffffffffffffffffffffffffffffffffffff16612fa282610c8f565b73ffffffffffffffffffffffffffffffffffffffff1614612ff8576040517f08c379a0000000000000000000000000000000000000000000000000000000008152600401612fef90615794565b60405180910390fd5b6069600082815260200190815260200160002060006101000a81549073ffffffffffffffffffffffffffffffffffffffff02191690556001606860008573ffffffffffffffffffffffffffffffffffffffff1673ffffffffffffffffffffffffffffffffffffffff168152602001908152602001600020600082825403925050819055506001606860008473ffffffffffffffffffffffffffffffffffffffff1673ffffffffffffffffffffffffffffffffffffffff16815260200190815260200160002060008282540192505081905550816067600083815260200190815260200160002060006101000a81548173ffffffffffffffffffffffffffffffffffffffff021916908373ffffffffffffffffffffffffffffffffffffffff160217905550808273ffffffffffffffffffffffffffffffffffffffff168473ffffffffffffffffffffffffffffffffffffffff167fddf252ad1be2c89b69c2b068fc378daa952ba7f163c4a11628f55a4df523b3ef60405160405180910390a46131848383836001613d22565b505050565b60006067600083815260200190815260200160002060009054906101000a900473ffffffffffffffffffffffffffffffffffffffff169050919050565b60006040518060c001604052806040518060400160405280600681526020017f67616d696e67000000000000000000000000000000000000000000000000000081525081526020016040518060400160405280600681526020017f686f72726f72000000000000000000000000000000000000000000000000000081525081526020016040518060400160405280600681526020017f6d6f6e6b6579000000000000000000000000000000000000000000000000000081525081526020016040518060400160405280600581526020017f616e696d6500000000000000000000000000000000000000000000000000000081525081526020016040518060400160405280600381526020017f617274000000000000000000000000000000000000000000000000000000000081525081526020016040518060400160405280600581526020017f6d6f76696500000000000000000000000000000000000000000000000000000081525081525090506000606060005b60068110156133f657600060ce60008773ffffffffffffffffffffffffffffffffffffffff1673ffffffffffffffffffffffffffffffffffffffff16815260200190815260200160002085836006811061339957613398615556565b5b60200201516040516133ab9190615846565b9081526020016040518091039020549050838111156133e2578093508482600681106133da576133d9615556565b5b602002015192505b5080806133ee90615585565b91505061333c565b508060cf60008673ffffffffffffffffffffffffffffffffffffffff1673ffffffffffffffffffffffffffffffffffffffff168152602001908152602001600020908051906020019061344a92919061437c565b5050505050565b600081831161346257829050613466565b8190505b92915050565b8173ffffffffffffffffffffffffffffffffffffffff168373ffffffffffffffffffffffffffffffffffffffff1614156134db576040517f08c379a00000000000000000000000000000000000000000000000000000000081526004016134d2906158a9565b60405180910390fd5b80606a60008573ffffffffffffffffffffffffffffffffffffffff1673ffffffffffffffffffffffffffffffffffffffff16815260200190815260200160002060008473ffffffffffffffffffffffffffffffffffffffff1673ffffffffffffffffffffffffffffffffffffffff16815260200190815260200160002060006101000a81548160ff0219169083151502179055508173ffffffffffffffffffffffffffffffffffffffff168373ffffffffffffffffffffffffffffffffffffffff167f17307eab39ab6107e8899845ad3d59bd9653f200f220920489ca2b5937696c31836040516135cc919061457a565b60405180910390a3505050565b6135e4848484612e8f565b6135f084848484613d28565b61362f576040517f08c379a00000000000000000000000000000000000000000000000000000000081526004016136269061593b565b60405180910390fd5b50505050565b600073ffffffffffffffffffffffffffffffffffffffff168273ffffffffffffffffffffffffffffffffffffffff1614156136a5576040517f08c379a000000000000000000000000000000000000000000000000000000000815260040161369c906159a7565b60405180910390fd5b6136ae81613cdb565b156136ee576040517f08c379a00000000000000000000000000000000000000000000000000000000081526004016136e590615a13565b60405180910390fd5b6136fc600083836001613d1c565b61370581613cdb565b15613745576040517f08c379a000000000000000000000000000000000000000000000000000000000815260040161373c90615a13565b60405180910390fd5b6001606860008473ffffffffffffffffffffffffffffffffffffffff1673ffffffffffffffffffffffffffffffffffffffff16815260200190815260200160002060008282540192505081905550816067600083815260200190815260200160002060006101000a81548173ffffffffffffffffffffffffffffffffffffffff021916908373ffffffffffffffffffffffffffffffffffffffff160217905550808273ffffffffffffffffffffffffffffffffffffffff16600073ffffffffffffffffffffffffffffffffffffffff167fddf252ad1be2c89b69c2b068fc378daa952ba7f163c4a11628f55a4df523b3ef60405160405180910390a461384f600083836001613d22565b5050565b61385c82613cdb565b61389b576040517f08c379a000000000000000000000000000000000000000000000000000000000815260040161389290615aa5565b60405180910390fd5b806097600084815260200190815260200160002090805190602001906138c292919061437c565b507ff8e1a15aba9398e019f0b49df1a4fde98ee17ae345cb5f6b5e2c27f5033e8ce7826040516138f29190614873565b60405180910390a15050565b60008311801561390f575060cb5434145b8015613920575061391f81613ebf565b5b61392957600080fd5b6040518061018001604052808581526020013373ffffffffffffffffffffffffffffffffffffffff1681526020013073ffffffffffffffffffffffffffffffffffffffff168152602001848152602001600015158152602001838152602001828152602001600015158152602001428152602001600073ffffffffffffffffffffffffffffffffffffffff16815260200160008152602001600081525060cd60008681526020019081526020016000206000820151816000015560208201518160010160006101000a81548173ffffffffffffffffffffffffffffffffffffffff021916908373ffffffffffffffffffffffffffffffffffffffff16021790555060408201518160020160006101000a81548173ffffffffffffffffffffffffffffffffffffffff021916908373ffffffffffffffffffffffffffffffffffffffff1602179055506060820151816003015560808201518160040160006101000a81548160ff02191690831515021790555060a0820151816005019080519060200190613ab792919061437c565b5060c0820151816006019080519060200190613ad492919061437c565b5060e08201518160070160006101000a81548160ff02191690831515021790555061010082015181600801556101208201518160090160006101000a81548173ffffffffffffffffffffffffffffffffffffffff021916908373ffffffffffffffffffffffffffffffffffffffff16021790555061014082015181600a015561016082015181600b0155905050613b6c333086612e8f565b50505050565b606060405180602001604052806000815250905090565b6060613b9482612cee565b6000613b9e613b72565b90506000815111613bbe5760405180602001604052806000815250613be9565b80613bc8846140d0565b604051602001613bd99291906155ff565b6040516020818303038152906040525b915050919050565b6000808273ffffffffffffffffffffffffffffffffffffffff163b119050919050565b600060019054906101000a900460ff16613c63576040517f08c379a0000000000000000000000000000000000000000000000000000000008152600401613c5a90615b37565b60405180910390fd5b613c6d82826141a8565b5050565b60007f01ffc9a7000000000000000000000000000000000000000000000000000000007bffffffffffffffffffffffffffffffffffffffffffffffffffffffff1916827bffffffffffffffffffffffffffffffffffffffffffffffffffffffff1916149050919050565b60008073ffffffffffffffffffffffffffffffffffffffff16613cfd83613189565b73ffffffffffffffffffffffffffffffffffffffff1614159050919050565b50505050565b50505050565b6000613d498473ffffffffffffffffffffffffffffffffffffffff16613bf1565b15613eb2578373ffffffffffffffffffffffffffffffffffffffff1663150b7a02613d72612d39565b8786866040518563ffffffff1660e01b8152600401613d949493929190615bac565b602060405180830381600087803b158015613dae57600080fd5b505af1925050508015613ddf57506040513d601f19601f82011682018060405250810190613ddc9190615c0d565b60015b613e62573d8060008114613e0f576040519150601f19603f3d011682016040523d82523d6000602084013e613e14565b606091505b50600081511415613e5a576040517f08c379a0000000000000000000000000000000000000000000000000000000008152600401613e519061593b565b60405180910390fd5b805181602001fd5b63150b7a0260e01b7bffffffffffffffffffffffffffffffffffffffffffffffffffffffff1916817bffffffffffffffffffffffffffffffffffffffffffffffffffffffff191614915050613eb7565b600190505b949350505050565b6000806040518060c001604052806040518060400160405280600681526020017f67616d696e67000000000000000000000000000000000000000000000000000081525081526020016040518060400160405280600681526020017f686f72726f72000000000000000000000000000000000000000000000000000081525081526020016040518060400160405280600681526020017f6d6f6e6b6579000000000000000000000000000000000000000000000000000081525081526020016040518060400160405280600581526020017f616e696d6500000000000000000000000000000000000000000000000000000081525081526020016040518060400160405280600381526020017f617274000000000000000000000000000000000000000000000000000000000081525081526020016040518060400160405280600581526020017f6d6f766965000000000000000000000000000000000000000000000000000000815250815250905060005b60068110156140c45781816006811061404e5761404d615556565b5b60200201516040516020016140639190615846565b604051602081830303815290604052805190602001208460405160200161408a9190615846565b6040516020818303038152906040528051906020012014156140b1576001925050506140cb565b80806140bc90615585565b915050614032565b5060009150505b919050565b6060600060016140df84614229565b01905060008167ffffffffffffffff8111156140fe576140fd614958565b5b6040519080825280601f01601f1916602001820160405280156141305781602001600182028036833780820191505090505b509050600082602001820190505b60011561419d578080600190039150507f3031323334353637383961626364656600000000000000000000000000000000600a86061a8153600a858161418757614186615c3a565b5b04945060008514156141985761419d565b61413e565b819350505050919050565b600060019054906101000a900460ff166141f7576040517f08c379a00000000000000000000000000000000000000000000000000000000081526004016141ee90615b37565b60405180910390fd5b816065908051906020019061420d92919061437c565b50806066908051906020019061422492919061437c565b505050565b600080600090507a184f03e93ff9f4daa797ed6e38ed64bf6a1f0100000000000000008310614287577a184f03e93ff9f4daa797ed6e38ed64bf6a1f010000000000000000838161427d5761427c615c3a565b5b0492506040810190505b6d04ee2d6d415b85acef810000000083106142c4576d04ee2d6d415b85acef810000000083816142ba576142b9615c3a565b5b0492506020810190505b662386f26fc1000083106142f357662386f26fc1000083816142e9576142e8615c3a565b5b0492506010810190505b6305f5e100831061431c576305f5e100838161431257614311615c3a565b5b0492506008810190505b612710831061434157612710838161433757614336615c3a565b5b0492506004810190505b60648310614364576064838161435a57614359615c3a565b5b0492506002810190505b600a8310614373576001810190505b80915050919050565b828054614388906150d7565b90600052602060002090601f0160209004810192826143aa57600085556143f1565b82601f106143c357805160ff19168380011785556143f1565b828001600101855582156143f1579182015b828111156143f05782518255916020019190600101906143d5565b5b5090506143fe91906144a9565b5090565b60405180610180016040528060008152602001600073ffffffffffffffffffffffffffffffffffffffff168152602001600073ffffffffffffffffffffffffffffffffffffffff16815260200160008152602001600015158152602001606081526020016060815260200160001515815260200160008152602001600073ffffffffffffffffffffffffffffffffffffffff16815260200160008152602001600081525090565b5b808211156144c25760008160009055506001016144aa565b5090565b6000604051905090565b600080fd5b600080fd5b60007fffffffff0000000000000000000000000000000000000000000000000000000082169050919050565b61450f816144da565b811461451a57600080fd5b50565b60008135905061452c81614506565b92915050565b600060208284031215614548576145476144d0565b5b60006145568482850161451d565b91505092915050565b60008115159050919050565b6145748161455f565b82525050565b600060208201905061458f600083018461456b565b92915050565b600081519050919050565b600082825260208201905092915050565b60005b838110156145cf5780820151818401526020810190506145b4565b838111156145de576000848401525b50505050565b6000601f19601f8301169050919050565b600061460082614595565b61460a81856145a0565b935061461a8185602086016145b1565b614623816145e4565b840191505092915050565b6000602082019050818103600083015261464881846145f5565b905092915050565b6000819050919050565b61466381614650565b811461466e57600080fd5b50565b6000813590506146808161465a565b92915050565b60006020828403121561469c5761469b6144d0565b5b60006146aa84828501614671565b91505092915050565b600073ffffffffffffffffffffffffffffffffffffffff82169050919050565b60006146de826146b3565b9050919050565b6146ee816146d3565b82525050565b600060208201905061470960008301846146e5565b92915050565b61471881614650565b82525050565b6000614729826146b3565b9050919050565b6147398161471e565b82525050565b600061018082019050614755600083018f61470f565b614762602083018e614730565b61476f604083018d614730565b61477c606083018c61470f565b614789608083018b61456b565b81810360a083015261479b818a6145f5565b905081810360c08301526147af81896145f5565b90506147be60e083018861456b565b6147cc61010083018761470f565b6147da610120830186614730565b6147e861014083018561470f565b6147f661016083018461470f565b9d9c50505050505050505050505050565b614810816146d3565b811461481b57600080fd5b50565b60008135905061482d81614807565b92915050565b6000806040838503121561484a576148496144d0565b5b60006148588582860161481e565b925050602061486985828601614671565b9150509250929050565b6000602082019050614888600083018461470f565b92915050565b6000806000606084860312156148a7576148a66144d0565b5b60006148b58682870161481e565b93505060206148c68682870161481e565b92505060406148d786828701614671565b9150509250925092565b600080604083850312156148f8576148f76144d0565b5b600061490685828601614671565b92505060206149178582860161481e565b9150509250929050565b600060208284031215614937576149366144d0565b5b60006149458482850161481e565b91505092915050565b600080fd5b600080fd5b7f4e487b7100000000000000000000000000000000000000000000000000000000600052604160045260246000fd5b614990826145e4565b810181811067ffffffffffffffff821117156149af576149ae614958565b5b80604052505050565b60006149c26144c6565b90506149ce8282614987565b919050565b600067ffffffffffffffff8211156149ee576149ed614958565b5b6149f7826145e4565b9050602081019050919050565b82818337600083830152505050565b6000614a26614a21846149d3565b6149b8565b905082815260208101848484011115614a4257614a41614953565b5b614a4d848285614a04565b509392505050565b600082601f830112614a6a57614a6961494e565b5b8135614a7a848260208601614a13565b91505092915050565b60008060408385031215614a9a57614a996144d0565b5b6000614aa885828601614671565b925050602083013567ffffffffffffffff811115614ac957614ac86144d5565b5b614ad585828601614a55565b9150509250929050565b60008060408385031215614af657614af56144d0565b5b6000614b0485828601614671565b9250506020614b1585828601614671565b9150509250929050565b60008060408385031215614b3657614b356144d0565b5b6000614b448582860161481e565b925050602083013567ffffffffffffffff811115614b6557614b646144d5565b5b614b7185828601614a55565b9150509250929050565b600081519050919050565b600082825260208201905092915050565b6000819050602082019050919050565b614bb081614650565b82525050565b614bbf8161471e565b82525050565b614bce8161455f565b82525050565b600082825260208201905092915050565b6000614bf082614595565b614bfa8185614bd4565b9350614c0a8185602086016145b1565b614c13816145e4565b840191505092915050565b600061018083016000830151614c376000860182614ba7565b506020830151614c4a6020860182614bb6565b506040830151614c5d6040860182614bb6565b506060830151614c706060860182614ba7565b506080830151614c836080860182614bc5565b5060a083015184820360a0860152614c9b8282614be5565b91505060c083015184820360c0860152614cb58282614be5565b91505060e0830151614cca60e0860182614bc5565b50610100830151614cdf610100860182614ba7565b50610120830151614cf4610120860182614bb6565b50610140830151614d09610140860182614ba7565b50610160830151614d1e610160860182614ba7565b508091505092915050565b6000614d358383614c1e565b905092915050565b6000602082019050919050565b6000614d5582614b7b565b614d5f8185614b86565b935083602082028501614d7185614b97565b8060005b85811015614dad5784840389528151614d8e8582614d29565b9450614d9983614d3d565b925060208a01995050600181019050614d75565b50829750879550505050505092915050565b60006020820190508181036000830152614dd98184614d4a565b905092915050565b614dea8161455f565b8114614df557600080fd5b50565b600081359050614e0781614de1565b92915050565b60008060408385031215614e2457614e236144d0565b5b6000614e328582860161481e565b9250506020614e4385828601614df8565b9150509250929050565b600067ffffffffffffffff821115614e6857614e67614958565b5b614e71826145e4565b9050602081019050919050565b6000614e91614e8c84614e4d565b6149b8565b905082815260208101848484011115614ead57614eac614953565b5b614eb8848285614a04565b509392505050565b600082601f830112614ed557614ed461494e565b5b8135614ee5848260208601614e7e565b91505092915050565b60008060008060808587031215614f0857614f076144d0565b5b6000614f168782880161481e565b9450506020614f278782880161481e565b9350506040614f3887828801614671565b925050606085013567ffffffffffffffff811115614f5957614f586144d5565b5b614f6587828801614ec0565b91505092959194509250565b600080600060608486031215614f8a57614f896144d0565b5b600084013567ffffffffffffffff811115614fa857614fa76144d5565b5b614fb486828701614a55565b9350506020614fc586828701614671565b925050604084013567ffffffffffffffff811115614fe657614fe56144d5565b5b614ff286828701614a55565b9150509250925092565b6150058161471e565b811461501057600080fd5b50565b60008135905061502281614ffc565b92915050565b6000806040838503121561503f5761503e6144d0565b5b600061504d85828601614671565b925050602061505e85828601615013565b9150509250929050565b6000806040838503121561507f5761507e6144d0565b5b600061508d8582860161481e565b925050602061509e8582860161481e565b9150509250929050565b7f4e487b7100000000000000000000000000000000000000000000000000000000600052602260045260246000fd5b600060028204905060018216806150ef57607f821691505b60208210811415615103576151026150a8565b5b50919050565b7f4552433732313a20617070726f76616c20746f2063757272656e74206f776e6560008201527f7200000000000000000000000000000000000000000000000000000000000000602082015250565b60006151656021836145a0565b915061517082615109565b604082019050919050565b6000602082019050818103600083015261519481615158565b9050919050565b7f4552433732313a20617070726f76652063616c6c6572206973206e6f7420746f60008201527f6b656e206f776e6572206f7220617070726f76656420666f7220616c6c000000602082015250565b60006151f7603d836145a0565b91506152028261519b565b604082019050919050565b60006020820190508181036000830152615226816151ea565b9050919050565b7f4552433732313a2063616c6c6572206973206e6f7420746f6b656e206f776e6560008201527f72206f7220617070726f76656400000000000000000000000000000000000000602082015250565b6000615289602d836145a0565b91506152948261522d565b604082019050919050565b600060208201905081810360008301526152b88161527c565b9050919050565b7f4552433732313a20696e76616c696420746f6b656e2049440000000000000000600082015250565b60006152f56018836145a0565b9150615300826152bf565b602082019050919050565b60006020820190508181036000830152615324816152e8565b9050919050565b7f4552433732313a2061646472657373207a65726f206973206e6f74206120766160008201527f6c6964206f776e65720000000000000000000000000000000000000000000000602082015250565b60006153876029836145a0565b91506153928261532b565b604082019050919050565b600060208201905081810360008301526153b68161537a565b9050919050565b7f4e487b7100000000000000000000000000000000000000000000000000000000600052601160045260246000fd5b60006153f782614650565b915061540283614650565b9250827fffffffffffffffffffffffffffffffffffffffffffffffffffffffffffffffff03821115615437576154366153bd565b5b828201905092915050565b600061544d82614650565b91506000821415615461576154606153bd565b5b600182039050919050565b600081905092915050565b60008190508160005260206000209050919050565b60008154615499816150d7565b6154a3818661546c565b945060018216600081146154be57600181146154cf57615502565b60ff19831686528186019350615502565b6154d885615477565b60005b838110156154fa578154818901526001820191506020810190506154db565b838801955050505b50505092915050565b6000615517828461548c565b915081905092915050565b600061552d82614650565b915061553883614650565b92508282101561554b5761554a6153bd565b5b828203905092915050565b7f4e487b7100000000000000000000000000000000000000000000000000000000600052603260045260246000fd5b600061559082614650565b91507fffffffffffffffffffffffffffffffffffffffffffffffffffffffffffffffff8214156155c3576155c26153bd565b5b600182019050919050565b60006155d982614595565b6155e3818561546c565b93506155f38185602086016145b1565b80840191505092915050565b600061560b82856155ce565b915061561782846155ce565b91508190509392505050565b7f496e697469616c697a61626c653a20636f6e747261637420697320616c72656160008201527f647920696e697469616c697a6564000000000000000000000000000000000000602082015250565b600061567f602e836145a0565b915061568a82615623565b604082019050919050565b600060208201905081810360008301526156ae81615672565b9050919050565b6000819050919050565b600060ff82169050919050565b6000819050919050565b60006156f16156ec6156e7846156b5565b6156cc565b6156bf565b9050919050565b615701816156d6565b82525050565b600060208201905061571c60008301846156f8565b92915050565b7f4552433732313a207472616e736665722066726f6d20696e636f72726563742060008201527f6f776e6572000000000000000000000000000000000000000000000000000000602082015250565b600061577e6025836145a0565b915061578982615722565b604082019050919050565b600060208201905081810360008301526157ad81615771565b9050919050565b7f4552433732313a207472616e7366657220746f20746865207a65726f2061646460008201527f7265737300000000000000000000000000000000000000000000000000000000602082015250565b60006158106024836145a0565b915061581b826157b4565b604082019050919050565b6000602082019050818103600083015261583f81615803565b9050919050565b600061585282846155ce565b915081905092915050565b7f4552433732313a20617070726f766520746f2063616c6c657200000000000000600082015250565b60006158936019836145a0565b915061589e8261585d565b602082019050919050565b600060208201905081810360008301526158c281615886565b9050919050565b7f4552433732313a207472616e7366657220746f206e6f6e20455243373231526560008201527f63656976657220696d706c656d656e7465720000000000000000000000000000602082015250565b60006159256032836145a0565b9150615930826158c9565b604082019050919050565b6000602082019050818103600083015261595481615918565b9050919050565b7f4552433732313a206d696e7420746f20746865207a65726f2061646472657373600082015250565b60006159916020836145a0565b915061599c8261595b565b602082019050919050565b600060208201905081810360008301526159c081615984565b9050919050565b7f4552433732313a20746f6b656e20616c7265616479206d696e74656400000000600082015250565b60006159fd601c836145a0565b9150615a08826159c7565b602082019050919050565b60006020820190508181036000830152615a2c816159f0565b9050919050565b7f45524337323155524953746f726167653a2055524920736574206f66206e6f6e60008201527f6578697374656e7420746f6b656e000000000000000000000000000000000000602082015250565b6000615a8f602e836145a0565b9150615a9a82615a33565b604082019050919050565b60006020820190508181036000830152615abe81615a82565b9050919050565b7f496e697469616c697a61626c653a20636f6e7472616374206973206e6f74206960008201527f6e697469616c697a696e67000000000000000000000000000000000000000000602082015250565b6000615b21602b836145a0565b9150615b2c82615ac5565b604082019050919050565b60006020820190508181036000830152615b5081615b14565b9050919050565b600081519050919050565b600082825260208201905092915050565b6000615b7e82615b57565b615b888185615b62565b9350615b988185602086016145b1565b615ba1816145e4565b840191505092915050565b6000608082019050615bc160008301876146e5565b615bce60208301866146e5565b615bdb604083018561470f565b8181036060830152615bed8184615b73565b905095945050505050565b600081519050615c0781614506565b92915050565b600060208284031215615c2357615c226144d0565b5b6000615c3184828501615bf8565b91505092915050565b7f4e487b7100000000000000000000000000000000000000000000000000000000600052601260045260246000fdfea26469706673582212203739c8d5c4baccdb6ecb7d4071931d5f5d9a05bc4ff9f46ea8e72ddce7324a4164736f6c63430008090033",
  "linkReferences": {},
  "deployedLinkReferences": {}
}